:020000040800F2
:1000000000000220691E00088116000883160008FF
:1000100085160008871600088916000800000000F1
:10002000000000000000000000000000C1490008BE
:100030008B16000800000000614A0008C54A00084D
:10004000B91E0008B91E0008B91E0008B91E000834
:10005000B91E0008B91E0008B91E0008B91E000824
:10006000B91E0008B91E0008B91E0008B91E000814
:100070008D160008B91E0008B91E0008B91E000838
:10008000B91E0008B91E0008B91E0008B91E0008F4
:100090009D160008B91E0008B91E0008B91E000808
:1000A000B91E0008B91E0008B91E0008B91E0008D4
:1000B000B91E0008B91E0008B91E0008B91E0008C4
:1000C000B91E0008B91E0008B91E0008B91E0008B4
:1000D000B91E0008AD160008B91E0008C56E00085C
:1000E000B91E0008B91E0008B91E0008B91E000894
:1000F000B91E0008B91E0008B91E0008B91E000884
:10010000B91E0008B91E0008B91E0008B91E000873
:10011000B91E0008B91E0008B91E0008BD16000867
:10012000B91E0008CD160008DD160008B91E00082B
:10013000B91E0008B91E0008B91E0008B91E000843
:10014000ED160008B91E0008B91E0008B91E000807
:10015000B91E0008FD160008B91E00080D1700089A
:10016000B91E0008B91E0008B91E0008B91E000813
:10017000B91E0008B91E0008B91E000800000000E2
:08018000B91E0008B91E0008B9
:1001C00081F0004102E000BF83F0004330B54FEA08
:1001D00041044FEA430594EA050F08BF90EA020F75
:1001E0001FBF54EA000C55EA020C7FEA645C7FEA08
:1001F000655C00F0E2804FEA5454D4EB5555B8BF2B
:100200006D420CDD2C4480EA020281EA030382EA9B
:10021000000083EA010180EA020281EA0303362D2D
:1002200088BF30BD11F0004F4FEA01314FF4801C00
:100230004CEA113102D0404261EB410113F0004F12
:100240004FEA03334CEA133302D0524263EB4303C9
:1002500094EA050F00F0A780A4F10104D5F1200E67
:100260000DDB02FA0EFC22FA05F2801841F10001C2
:1002700003FA0EF2801843FA05F359410EE0A5F196
:1002800020050EF1200E012A03FA0EFC28BF4CF0C7
:10029000020C43FA05F3C01851EBE37101F000457D
:1002A00007D54FF0000EDCF1000C7EEB00006EEB8A
:1002B0000101B1F5801F1BD3B1F5001F0CD3490814
:1002C0005FEA30004FEA3C0C04F101044FEA44526B
:1002D00012F5800F80F09A80BCF1004F08BF5FEAF2
:1002E000500C50F1000041EB045141EA050130BDD2
:1002F0005FEA4C0C404141EB0101013C28BFB1F5E4
:10030000801FE9D291F0000F04BF01460020B1FA2E
:1003100081F308BF2033A3F10B03B3F120020CDA01
:100320000C3208DD02F1140CC2F10C0201FA0CF0DF
:1003300021FA02F10CE002F11402D8BFC2F1200C44
:1003400001FA02F120FA0CFCDCBF41EA0C019040FA
:10035000E41AA2BF01EB0451294330BD6FEA040443
:100360001F3C1CDA0C340EDC04F11404C4F120022E
:1003700020FA04F001FA02F340EA030021FA04F340
:1003800045EA030130BDC4F10C04C4F1200220FA97
:1003900002F001FA04F340EA0300294630BD21FAD5
:1003A00004F0294630BD94F0000F83F4801306BF9B
:1003B00081F480110134013D4EE77FEA645C18BF8F
:1003C0007FEA655C29D094EA050F08BF90EA020F26
:1003D00005D054EA000C04BF1946104630BD91EA1E
:1003E000030F1EBF0021002030BD5FEA545C05D121
:1003F0004000494128BF41F0004130BD14F5800460
:100400003CBF01F5801130BD01F0004545F0FE41D3
:1004100041F470014FF0000030BD7FEA645C1ABF08
:10042000194610467FEA655C1CBF0B46024650EA3F
:10043000013406BF52EA033591EA030F41F400216B
:1004400030BD00BF90F0000F04BF0021704730B5F1
:100450004FF4806404F132044FF000054FF00001C6
:1004600050E700BF90F0000F04BF0021704730B587
:100470004FF4806404F1320410F0004548BF40425C
:100480004FF000013EE700BF42004FEAE2014FEAB1
:1004900031014FEA02701FBF12F07F4393F07F4F8C
:1004A00081F06051704732F07F4208BF704793F08F
:1004B0007F4F04BF41F40021704730B54FF46074A2
:1004C00001F0004521F000411CE700BF50EA0102A5
:1004D00008BF704730B54FF000050AE050EA01024E
:1004E00008BF704730B511F0004502D5404261EBBE
:1004F00041014FF4806404F132045FEA915C3FF4FF
:10050000D8AE4FF003025FEADC0C18BF03325FEA9B
:10051000DC0C18BF033202EBDC02C2F1200300FA4C
:1005200003FC20FA02F001FA03FE40EA0E0021FA71
:1005300002F11444BDE600BF4FEA4102B2F1E043CC
:1005400024BFB3F5001CDCF1FE5C0DD901F0004CBA
:100550004FEAC0024CEA5070B2F1004F40EB83000A
:1005600008BF20F00100704711F0804F21D113F136
:100570003872BCBF01F00040704741F480114FEA6F
:100580005252C2F11802C2F1200C10FA0CF320FAF8
:1005900002F018BF40F001004FEAC1234FEAD32315
:1005A00003FA0CFC40EA0C0023FA02F34FEA43037F
:1005B000CCE77FEA625307D150EA01331EBF4FF008
:1005C000FE4040F44000704701F0004040F0FE4023
:1005D00040F40000704700BF53B94AB9002908BF72
:1005E00000281CBF4FF0FF314FF0FF3000F00CB877
:1005F000ADF1080C6DE904CE06F04EFEDDF804E026
:10060000DDE9022304B07047704700BF844641EA29
:10061000000313F003036DD1403A41D351F8043B7A
:1006200040F8043B51F8043B40F8043B51F8043BCC
:1006300040F8043B51F8043B40F8043B51F8043BBC
:1006400040F8043B51F8043B40F8043B51F8043BAC
:1006500040F8043B51F8043B40F8043B51F8043B9C
:1006600040F8043B51F8043B40F8043B51F8043B8C
:1006700040F8043B51F8043B40F8043B51F8043B7C
:1006800040F8043B51F8043B40F8043B51F8043B6C
:1006900040F8043B51F8043B40F8043B403ABDD2DB
:1006A000303211D351F8043B40F8043B51F8043B7D
:1006B00040F8043B51F8043B40F8043B51F8043B3C
:1006C00040F8043B103AEDD20C3205D351F8043B0C
:1006D00040F8043B043AF9D2043208D0D2071CBFD8
:1006E00011F8013B00F8013B01D30B880380604601
:1006F000704700BF082A13D38B078DD010F0030377
:100700008AD0C3F10403D21ADB071CBF11F8013BE6
:1007100000F8013B80D331F8023B20F8023B7BE735
:10072000043AD9D3013A11F8013B00F8013BF9D260
:100730000B7803704B7843708B78837060467047FA
:1007400001F0FF01102A2BDB10F0070F08D010F882
:10075000013B013A8B422DD010F0070F42B3F6D186
:10076000F0B441EA012141EA014122F007047FF09F
:1007700000070023F0E80256083C85EA010586EAF6
:10078000010685FA47F5A3FA87F586FA47F6A5FA32
:1007900087F68EB9EED1F0BC01F0FF0102F007023E
:1007A00032B110F8013B013A83EA010313B1F8D1E9
:1007B0000020704701387047002D06BF35460338CA
:1007C000073815F0010F07D1013015F4807F02BF03
:1007D000013015F4C03F0130F0BC0138704700BF54
:1007E0000000000000000000000000000000000009
:1007F00000000000000000000000000000000000F9
:1008000030B490F800F020F007016FF0000C10F009
:10081000070491F820F040F048804FF000046FF09A
:100820000700D1E9002391F840F000F1080082FAB6
:100830004CF2A4FA8CF283FA4CF3A2FA8CF34BBB81
:10084000D1E9022382FA4CF200F10800A4FA8CF2FA
:1008500083FA4CF3A2FA8CF3E3B9D1E9042382FAC8
:100860004CF200F10800A4FA8CF283FA4CF3A2FADD
:100870008CF37BB9D1E9062301F1200182FA4CF215
:1008800000F10800A4FA8CF283FA4CF3A2FA8CF37C
:10089000002BC6D0002A04BF04301A4612BAB2FA9E
:1008A00082F200EBD20030BC7047D1E9002304F0A3
:1008B0000305C4F100004FEAC50514F0040F91F8D8
:1008C00040F00CFA05F562EA05021CBF63EA050375
:1008D00062464FF00004AAE770B54FF0FF0C4CF4ED
:1008E000E06C1CEA11541DBF1CEA135594EA0C0F6E
:1008F00095EA0C0F00F0DEF82C4481EA030621EAA9
:100900004C5123EA4C5350EA013518BF52EA0335E3
:1009100041F4801143F4801338D0A0FB02CE4FF095
:100920000005E1FB02E506F00042E0FB03E54FF0C5
:100930000006E1FB03569CF0000F18BF4EF0010EBD
:10094000A4F1FF04B6F5007F64F5407404D25FEAB9
:100950004E0E6D4146EB060642EAC62141EA55516C
:100960004FEAC52040EA5E504FEACE2EB4F1FD0CAE
:1009700088BFBCF5E06F1ED8BEF1004F08BF5FEA2C
:10098000500E50F1000041EB045170BD06F00046DE
:1009900046EA010140EA020081EA0301B4EB5C048B
:1009A000C2BFD4EB0C0541EA045170BD41F4801183
:1009B0004FF0000E013C00F3AB8014F1360FDEBFA8
:1009C000002001F0004170BDC4F10004203C35DA84
:1009D0000C341BDC04F11404C4F1200500FA05F307
:1009E00020FA04F001FA05F240EA020001F00042A8
:1009F00021F0004110EBD37021FA04F642EB06011E
:100A00005EEA430E08BF20EAD37070BDC4F10C0447
:100A1000C4F1200500FA04F320FA05F001FA04F20B
:100A200040EA020001F0004110EBD37041F10001F7
:100A30005EEA430E08BF20EAD37070BDC4F1200502
:100A400000FA05F24EEA020E20FA04F301FA05F26A
:100A500043EA020321FA04F001F0004121FA04F212
:100A600020EA020000EBD3705EEA430E08BF20EAE2
:100A7000D37070BD94F0000F0FD101F0004640001C
:100A800041EB010111F4801F08BF013CF7D041EA9E
:100A9000060195F0000F18BF704703F000465200A2
:100AA00043EB030313F4801F08BF013DF7D043EA73
:100AB0000603704794EA0C0F0CEA135518BF95EA29
:100AC0000C0F0CD050EA410618BF52EA4306D1D1B0
:100AD00081EA030101F000414FF0000070BD50EACF
:100AE000410606BF1046194652EA430619D094EA59
:100AF0000C0F02D150EA013613D195EA0C0F05D143
:100B000052EA03361CBF104619460AD181EA030196
:100B100001F0004141F0FE4141F470014FF000004E
:100B200070BD41F0FE4141F4780170BD70B54FF0E9
:100B3000FF0C4CF4E06C1CEA11541DBF1CEA135569
:100B400094EA0C0F95EA0C0F00F0A7F8A4EB05044B
:100B500081EA030E52EA03354FEA013100F0888042
:100B60004FEA03334FF0805545EA131343EA12630B
:100B70004FEA022245EA111545EA10654FEA0026C0
:100B80000EF000419D4208BF964244F1FD0404F579
:100B9000407402D25B084FEA3202B61A65EB0305D5
:100BA0005B084FEA32024FF480104FF4002CB6EB92
:100BB000020E75EB030E22BFB61A754640EA0C0012
:100BC0005B084FEA3202B6EB020E75EB030E22BF52
:100BD000B61A754640EA5C005B084FEA3202B6EB93
:100BE000020E75EB030E22BFB61A754640EA9C0052
:100BF0005B084FEA3202B6EB020E75EB030E22BF22
:100C0000B61A754640EADC0055EA060E18D04FEADF
:100C1000051545EA16754FEA06164FEAC30343EA7F
:100C200052734FEAC2025FEA1C1CC0D111F4801F4C
:100C30000BD141EA00014FF000004FF0004CB6E745
:100C400011F4801F04BF01430020B4F1FD0C88BFE4
:100C5000BCF5E06F3FF6AFAEB5EB030C04BFB6EBEF
:100C6000020C5FEA500C50F1000041EB045170BDE2
:100C70000EF0004E4EEA113114EB5C04C2BFD4EB0F
:100C80000C0541EA045170BD41F480114FF0000E93
:100C9000013C90E645EA060E8DE60CEA135594EA0F
:100CA0000C0F08BF95EA0C0F3FF43BAF94EA0C0F12
:100CB0000AD150EA01347FF434AF95EA0C0F7FF487
:100CC00025AF104619462CE795EA0C0F06D152EADB
:100CD00003353FF4FDAE1046194622E750EA4106BF
:100CE00018BF52EA43067FF4C5AE50EA41047FF4D0
:100CF0000DAF52EA43057FF4EBAE12E74FF0FF3C35
:100D000006E000BF4FF0010C02E000BF4FF0010C05
:100D10004DF804CD4FEA410C7FEA6C5C4FEA430C7E
:100D200018BF7FEA6C5C1BD001B050EA410C0CBFCD
:100D300052EA430C91EA030F02BF90EA020F00202F
:100D4000704710F1000F91EA030F58BF994208BF96
:100D500090422CBFD8176FEAE37040F00100704753
:100D60004FEA410C7FEA6C5C02D150EA013C07D1AA
:100D70004FEA430C7FEA6C5CD6D152EA033CD3D0F5
:100D80005DF8040B704700BF8446104662468C46EF
:100D90001946634600E000BF01B5FFF7B7FF002822
:100DA00048BF10F1000F01BD4DF808EDFFF7F4FF4B
:100DB0000CBF012000205DF808FB00BF4DF808EDD6
:100DC000FFF7EAFF34BF012000205DF808FB00BFF9
:100DD0004DF808EDFFF7E0FF94BF012000205DF81B
:100DE00008FB00BF4DF808EDFFF7CEFF94BF0120D0
:100DF00000205DF808FB00BF4DF808EDFFF7C4FFC9
:100E000034BF012000205DF808FB00BF4FEA410C11
:100E10007FEA6C5C02D150EA013C0AD14FEA430CF4
:100E20007FEA6C5C02D152EA033C02D14FF0000031
:100E300070474FF0010070474FEA410212F500126F
:100E400015D211D56FF47873B3EB625212D94FEA11
:100E5000C12343F0004343EA505311F0004F23FAFB
:100E600002F018BF404270474FF00000704750EA50
:100E7000013005D111F0004008BF6FF0004070470D
:100E80004FF00000704700BF0348044B834202D07C
:100E9000034B03B1184770476C0700206C07002014
:100EA000000000000548064B1B1AD90F01EBA301F7
:100EB000491002D0034B03B1184770476C0700205C
:100EC0006C0700200000000010B5064C237843B9E1
:100ED000FFF7DAFF044B13B10448AFF3008001239E
:100EE000237010BD700700200000000018E9000802
:100EF00008B5054B1BB105490548AFF30080BDE8B7
:100F00000840FFF7CFBF00BF0000000074070020BB
:100F100018E9000808B50D480D4B03600323436032
:100F200000238360C3604FF4102202614FF400126B
:100F30004261037643768376C3760377437700F086
:100F4000E9FF00B908BD00F063FAFBE7B80700202D
:100F50000064004008B50D480D4B03600323436057
:100F600000238360C3604FF4102202614FF400122B
:100F70004261037643768376C3760377437700F046
:100F8000C9FF00B908BD00F043FAFBE79007002055
:100F90000068004010B58AB00023059306930793BC
:100FA0000893099303683D4A934204D03C4A934214
:100FB00034D00AB010BD3B4A136801331360012BD3
:100FC0001FD000240194384B1A6B42F008021A63B8
:100FD0001B6B03F008030193019B0323059302227B
:100FE000069208930923099305A9304801F03CFEB5
:100FF00022460521142001F0C1FB142001F0CEFB94
:10100000D7E700230093284B1A6C42F000721A6451
:101010001B6C03F000730093009BD2E70023029344
:10102000214B1A6C42F080621A641B6C03F08063DF
:101030000293029B1B4A136801331360012B20D0DB
:1010400000240494184B1A6B42F002021A631B6BC3
:1010500003F002030493049B602305930223069389
:10106000032308930923099305A9114801F0FCFD06
:1010700022460521402001F081FB402001F08EFB3B
:1010800097E700230393084B1A6C42F000721A642E
:101090001B6C03F000730393039BD1E700640040D3
:1010A000006800408C07002000380240000C02401D
:1010B0000004024010B582B0002400941A4B1A6B51
:1010C00042F480021A631A6B02F480020092009AC2
:1010D00001941A6B42F400121A631B6B03F40013A1
:1010E0000193019B224605210C2001F047FB0C20B7
:1010F00001F054FB22460521392001F03FFB392045
:1011000001F04CFB224605213A2001F037FB3A2042
:1011100001F044FB22460521452001F02FFB45202C
:1011200001F03CFB02B010BD0038024008B50120C0
:1011300003F0A5FBFBE70000034B0360034B0B60D0
:1011400080231360704700BFE0090020E007002003
:1011500010B5CEB0634C0DF58E7CA646BEE80F00F0
:10116000ACE80F009EE807008CE80700002147A8C4
:1011700003F052FB5C4B18600DF5807C04F11C0EF3
:10118000BEE80F00ACE80F009EE807008CE80700FF
:10119000002140A803F040FB544B18600DF1E40C13
:1011A00004F1380EBEE80F00ACE80F009EE807001F
:1011B0008CE80700002139A803F02EFB4C4B186087
:1011C0000DF1C80C04F1540EBEE80F00ACE80F009E
:1011D0009EE807008CE80700002132A803F01CFB02
:1011E000444B18600DF1AC0C04F1700EBEE80F001A
:1011F000ACE80F009EE807008CE8070000212BA850
:1012000003F00AFB3C4B18600DF1900C04F18C0EBE
:10121000BEE80F00ACE80F009EE807008CE807006E
:10122000002124A803F0F8FA344B18600DF1740C77
:1012300004F1A80EBEE80F00ACE80F009EE807001E
:101240008CE8070000211DA803F0E6FA2C4B18607B
:101250000DF1580C04F1C40EBEE80F00ACE80F000D
:101260009EE807008CE80700002116A803F0D4FAD6
:10127000244B18600DF13C0C04F1E00EBEE80F00A9
:10128000ACE80F009EE807008CE8070000210FA8DB
:1012900003F0C2FA1C4B18600DF1200C04F1FC0E97
:1012A000BEE80F00ACE80F009EE807008CE80700DE
:1012B000002108A803F0B0FA144B18600DF1040CDB
:1012C00004F58C740FCCACE80F0094E807008CE8B0
:1012D0000700002101A803F09FFA0D4B18604EB0E3
:1012E00010BD00BF30E90008A00B00209C0B0020BF
:1012F000980B0020940B0020900B00208C0B0020FA
:10130000880B0020840B0020800B00207C0B002029
:10131000780B002030B58FB0002409940A940B9408
:101320000C940D940194324B1A6B42F002021A6332
:101330001A6B02F002020192019A02941A6B42F0B7
:1013400040021A631A6B02F040020292029A03945E
:101350001A6B42F001021A631A6B02F00102039247
:10136000039A04941A6B42F008021A631A6B02F093
:1013700008020492049A05941A6B42F004021A635C
:101380001A6B02F004020592059A06941A6B42F455
:1013900080721A631A6B02F480720692069A07949E
:1013A0001A6B42F080021A631A6B02F080020792F5
:1013B000079A08941A6B42F010021A631B6B03F031
:1013C00010030893089B0B4D22464FF4E05128462A
:1013D00001F040FD4FF4E053099301230A930B946D
:1013E0000C9409A9284601F03FFC0FB030BD00BFA6
:1013F00000380240001C024008B50268034B9A42C4
:1014000000D008BD00F074FDFBE700BF00140040F1
:1014100072B6FEE700B595B03022002108A806F0AC
:10142000EDF9002303930493059306930793019327
:10143000204A116C41F080511164126C02F080520C
:101440000192019A02931C4B1A6842F480421A607E
:101450001B6803F480430293029B012308934FF41B
:101460008033099302230E934FF480020F920622D9
:101470001092A822119212930423139308A801F04A
:10148000F9FC98B90F2303930223049300230593D7
:101490004FF4A05306934FF480530793052103A8FC
:1014A00001F038FF20B915B05DF804FBFFF7B0FF7D
:1014B000FFF7AEFF003802400070004008B500F0B2
:1014C000FDFCFFF7A7FFFFF725FFFFF7F3FD00F097
:1014D00069FB00F049FBFFF71DFDFFF73BFD00F046
:1014E00029FB00F00DFA00F09DFA264C204602F090
:1014F000CDF80021204602F005FC0421204602F030
:1015000001FC0821204602F0FDFB0021204602F0EC
:10151000F9FB1D4C204602F0B9F80021204602F0EC
:10152000F1FB0421204602F0EDFB0821204602F0E9
:10153000E9FB01221549164803F050F905F0B4FC07
:1015400005F0BCFC134B186004F00AFA04F070FDBF
:1015500004F09EFD04F0CCFD04F0FAFD04F066FEFC
:1015600005F0AAF805F0D6F805F026F905F036F9E9
:1015700005F064F905F0E2FDFFF7EAFD03F047F935
:10158000FEE700BF0C0D0020C40C00202C0C002036
:10159000640F0020740C002000B583B0002200927C
:1015A0000D4B596C41F480415964596C01F48041F0
:1015B000009100990192196C41F0805119641B6CE3
:1015C00003F080530193019B0F216FF0010001F0A4
:1015D000D5F803B05DF804FB0038024030B589B09F
:1015E000044600230193214B1A6C42F020021A6436
:1015F0001B6C03F020030193019B02A903A801F0D7
:101600005FFF069BCBB901F03BFF0346184AA2FBE4
:1016100003239B0C013B1748174A026040F2E73254
:10162000C2604360002303618360836102F0D0F9EC
:10163000054630B1284609B030BD01F021FF430016
:10164000E4E70C4802F060F805460028F2D13720A4
:1016500001F0A4F80F2C01D90125EBE70022214667
:10166000372001F08BF8054B1C60E3E7003802409F
:1016700083DE1B43780C0020001400400C00002087
:10168000FEE7FEE7FEE7FEE7FEE7704708B5024823
:1016900001F0FCF908BD00BF140E002008B5024897
:1016A00000F0F0FE08BD00BFB807002008B50248F2
:1016B00002F0A4FE08BD00BF640F002008B5024878
:1016C00002F06BF808BD00BF780C002008B5024896
:1016D00001F0DCF908BD00BF540D002008B5024838
:1016E00001F0D4F908BD00BF740E002008B502480F
:1016F00000F0C8FE08BD00BF9007002008B50248F2
:1017000001F0C4F908BD00BFB40D002008B50248BF
:1017100002F074FE08BD00BFD40E00200120704707
:1017200008B506F047F9162303604FF0FF3008BDF7
:1017300008B54FF0FF31FFF7F3FFFEE770B50C4639
:101740001646002506E0AFF30080214601F8010BA4
:1017500001350C46B542F6DB304670BD70B50C461F
:101760001646002504E014F8010BAFF300800135A4
:10177000B542F8DB304670BD4FF0FF3070474FF494
:1017800000534B60002070470120704700207047D5
:1017900010B503460C4A0D490D48006840B10C488D
:1017A00000680344521A934206D8094A136010BDD8
:1017B0000748084C0460F2E706F0FCF80C230360CD
:1017C0004FF0FF30F3E700BF0000022000040000EC
:1017D000C00C0020E8550020034AD2F8883043F4BA
:1017E0007003C2F88830704700ED00E082B00368F3
:1017F000104A934204D0104A93420ED002B0704770
:10180000002300930D4B5A6C42F001025A645B6C4A
:1018100003F001030093009BF0E700230193074BC3
:101820005A6C42F002025A645B6C03F002030193AB
:10183000019BE3E700000140000401400038024042
:1018400070B588B000230393049305930693079320
:101850000368254A934204D0244A934219D008B021
:1018600070BD00230093224B1A6B42F010021A63E2
:101870001B6B03F010030093009B4FF4D4430393BE
:10188000022304930123079303A91A4801F0ECF9FA
:10189000E5E700240194164B1A6B42F480721A6338
:1018A0001A6B02F480720192019A02941A6B42F050
:1018B00004021A631B6B03F004030293029BC02310
:1018C0000393022604960325079503A90A4801F00D
:1018D000CBF940230393049605940694079503A936
:1018E000064801F0C1F9BAE70000014000040140D8
:1018F0000038024000100240002002400008024070
:1019000010B596B000241294139414941594109466
:10191000119409940A940B940C940D940E940F94C2
:101920002022214601A805F069FF3C483C4B03609A
:10193000A7234360846044F61F63C360046144616D
:10194000846102F045F800284DD14FF48053129382
:1019500012A9324802F047F9002847D12F4802F077
:1019600063F8002845D100231093119310A92B4848
:1019700002F04AFA00283FD1602309934FF4FA633A
:101980000A9300220B920C920D920E920F9209A9CB
:10199000224802F0ADF8002831D1042209A91F48DD
:1019A00002F0A6F870BB082209A91C4802F0A0F8B2
:1019B00058BB0C2209A9194802F09AF840BB002331
:1019C000019302930393049305934FF400520692FC
:1019D000089301A9114802F05DFAE0B90F48FFF73A
:1019E0002FFF16B010BDFFF713FDAEE7FFF710FD98
:1019F000B4E7FFF70DFDB6E7FFF70AFDBCE7FFF719
:101A000007FDCAE7FFF704FDCDE7FFF701FDD0E7CB
:101A1000FFF7FEFCD3E7FFF7FBFCDFE70C0D002030
:101A20000000014010B596B0002412941394149451
:101A300015941094119409940A940B940C940D9499
:101A40000E940F942022214601A805F0D7FE3748B6
:101A5000374B0360A7234360846044F61F63C36071
:101A600004614461846101F0B3FF002846D14FF462
:101A70008053129312A92D4802F0B5F8002840D1E6
:101A80002A4801F0D1FF00283ED100231093119382
:101A900010A9264802F0B8F9002838D1602309932C
:101AA0004FF4FA630A9300220B920C920D920E925D
:101AB0000F9209A91D4802F01BF858BB042209A97E
:101AC0001A4802F015F840BB082209A9174802F08D
:101AD0000FF828BB0023019302930393049305930B
:101AE0004FF400520692089301A9104802F0D2F96F
:101AF000C8B90E48FFF7A4FE16B010BDFFF788FC6A
:101B0000B5E7FFF785FCBBE7FFF782FCBDE7FFF712
:101B10007FFCC3E7FFF77CFCD0E7FFF779FCD3E756
:101B2000FFF776FCD6E7FFF773FCE2E7C40C002072
:101B30000004014008B50A480A4B03604FF41653ED
:101B4000436000238360C36003610C2242618361B0
:101B5000C36102F004FB00B908BDFFF759FCFBE7C5
:101B6000640F00200010014008B50B480B4B0360C8
:101B70000B4B436000238360C3604FF480620261BB
:101B8000042242618361C36102F0E9FA00B908BD31
:101B9000FFF73EFCFBE700BF1C0F002000480040A1
:101BA000A086010008B50A480A4B03604FF4E133F0
:101BB000436000238360C36003610C224261836140
:101BC000C36102F0CCFA00B908BDFFF721FCFBE7C6
:101BD000D40E0020001401402DE9F0418CB00446E1
:101BE00000230793089309930A930B9303688E4A83
:101BF000934209D08D4A934264D08D4A934200F0BB
:101C0000AA800CB0BDE8F08100250095894B5A6C84
:101C100042F010025A645A6C02F010020092009ACC
:101C200001951A6B42F002021A631A6B02F002026B
:101C30000192019A02951A6B42F001021A631B6B22
:101C400003F001030293029B802307934FF00208E5
:101C5000CDF8208003270A9707260B9607A9764818
:101C600001F002F84FF400730793CDF82080099536
:101C70000A970B9607A9714800F0F6FF7048714B60
:101C800003604FF0006343608560C5604FF480637C
:101C9000036145618561C5614FF44033036245626C
:101CA00000F0FCFD58B9664BE3639C6300220521FC
:101CB000252000F063FD252000F070FDA1E7FFF76F
:101CC000A7FBF0E7002503955A4B1A6C42F48022DB
:101CD0001A641A6C02F480220392039A04951A6B18
:101CE00042F004021A631B6B03F004030493049B89
:101CF0004FF4406307930223089303230A930723B7
:101D00000B9307A9504800F0AFFF5048504B0360B9
:101D10004FF0006343608560C5604FF480630361EA
:101D2000456185614FF48073C3614FF400330362F2
:101D3000456200F0B3FD58B9444BE3639C63002255
:101D40000521272000F01AFD272000F027FD58E785
:101D5000FFF75EFBF0E700250595364B5A6C42F025
:101D600020025A645A6C02F020020592059A0695E8
:101D70001A6B42F040021A631B6B03F04003069398
:101D8000069B4FF4844307930223089303230A938B
:101D900008230B9307A92F4800F066FF2E482F4B0E
:101DA00003604FF02063436040238360C5604FF4BD
:101DB00080630361456185614FF48073C3614FF4B3
:101DC00080330362456200F069FD30BB224BA363A0
:101DD0009C632348234B03604FF020634360002340
:101DE0008360C3604FF480620261436183614FF49A
:101DF0008072C2614FF480320262436200F04EFD95
:101E000070B9174BE3639C6300220521472000F063
:101E1000B5FC472000F0C2FCF3E6FFF7F9FAD5E77E
:101E2000FFF7F6FAEDE700BF001001400048004060
:101E3000001401400038024000040240000002404B
:101E4000740E00204064024000080240140E00207E
:101E50002860024000180240B40D0020A064024037
:101E6000540D002028640240DFF834D0FFF7B4FCA2
:101E70000C480D490D4A002302E0D458C4500433E5
:101E8000C4188C42F9D30A4A0A4C002301E01360BB
:101E90000432A242FBD305F093FDFFF70FFB70471E
:101EA00000000220000000206C0700201CF1000848
:101EB00070070020E4550020FEE7000008B50B4B3A
:101EC0001A6842F400721A601A6842F480621A605A
:101ED0001A6842F480721A60032000F03DFC0F2063
:101EE000FFF77CFBFFF758FB002008BD003C0240D9
:101EF000034A1168034B1B780B441360704700BF03
:101F0000AC0F002008000020014B1868704700BF8C
:101F1000AC0F0020002800F0A18038B5044690F8EE
:101F20002030D3B12268136843F001031360FFF738
:101F3000EBFF054623685A6812F0010F10D1FFF736
:101F4000E3FF401B0A28F5D9636A43F40033636258
:101F5000052384F82030012038BDFFF71BF8E1E7A6
:101F60001A6822F002021A60FFF7CEFF05462368C6
:101F70005A6812F0020F0DD0FFF7C6FF401B0A2867
:101F8000F5D9636A43F400336362052384F8203093
:101F90000120E1E7227E012A3DD01A6822F080026A
:101FA0001A60637E012B3BD02268136823F0400344
:101FB0001360A37E012B39D02268136823F020031D
:101FC0001360E37E012B37D02268136843F01003BF
:101FD0001360237F012B35D02268136823F0080398
:101FE0001360637F012B33D02268136823F004034E
:101FF0001360A368E26813432269134362691343C1
:102000006268013A21681343CB61002060620123BA
:1020100084F82030A0E71A6842F080021A60C0E716
:102020002268136843F040031360C2E72268136814
:1020300043F020031360C4E72268136823F0100301
:102040001360C6E72268136843F008031360C8E70B
:102050002268136843F004031360CAE70120704745
:1020600090F82030013BDBB2012B05D9436A43F4E1
:10207000802343620120704730B5464BD3F80022DD
:1020800042F00102C3F80022D3F8002222F47C526D
:10209000C3F80022D3F80022486A42EA0022C3F8BB
:1020A00000224A6902F01F02012000FA02F2D3F86E
:1020B0001C026FEA020C20EA0200C3F81C02CB6982
:1020C000C3B9344BD3F80C020CEA0000C3F80C027D
:1020D0008C884869CD6844EA0544483043F830406C
:1020E0008C68088840EA04404C6904F1480E03EB10
:1020F000CE035860CB69012B1ED08B69002B33D1E6
:102100002448D0F804320CEA0303C0F804320B6907
:102110008BBB2048D0F814320CEA0303C0F8143209
:102120000B6A012B2ED01B4AD2F8003223F0010398
:10213000C2F80032002030BD164BD3F80C02104319
:10214000C3F80C028C8848690D6844EA054448309D
:1021500043F8304088894C698D6840EA054048342E
:1021600003EBC4035860C8E70A48D0F804321343AD
:10217000C0F80432CBE70748D0F814321343C0F854
:102180001432CDE70349D1F81C321343C1F81C3295
:10219000C9E700BF0064004070B5044690F82050C5
:1021A000EDB2012D06D0436A43F4002343620125BA
:1021B000284670BD022380F820300268136823F09F
:1021C00001031360FFF7A0FE064623685B6813F067
:1021D000010F0CD0FFF798FE831B0A2BF5D9636A19
:1021E00043F400336362052384F82030E0E70025E0
:1021F0006562DDE730B590F820C00468A4680CF192
:10220000FF3C5FFA8CFCBCF1010F62D814F0E05F78
:1022100059D0C4F3016C012404FA0CF41C608B68DF
:10222000002B3DD10D68CB68046843EA45550CF19D
:1022300018031B01E55003680C690CF1180E03EB41
:102240000E135C600B7D012B35D0D17993791B0483
:1022500043EA0163517943EA012314790168234376
:1022600001EB0C11C1F88C31D17893781B0443EA4F
:102270000163517843EA0123117802680B4302EBB2
:102280000C12C2F8883102680CF1180C4FEA0C1CD1
:1022900052F80C3043F0010342F80C3000201DE0EE
:1022A0004C6843EAC403CC6823430CF118042401AE
:1022B00005682B51BFE7036803EB0E13596841F41F
:1022C00080715960C1E7436A43F4001343620120FF
:1022D00004E0436A43F480234362012030BD90F858
:1022E00020C00CF1FF3C5FFA8CFCBCF1010F00F246
:1022F000A58030B451B90468E46814F0030F10D11C
:10230000436A43F40013436201207EE004682469B9
:1023100014F0030F05D1436A43F400134362012014
:1023200073E0056801F11B0424012C5904F0040436
:102330009460002C6BD1056801F11B0424012C5919
:10234000640D1460046801F11B0C4FEA0C1C54F876
:102350000C4004F00204D4600468A444DCF8045087
:1023600015F0080F5BD008241461046801F11B0C00
:1023700004EB0C146468C4F307249461046804EB50
:102380000C146468240C5461026802EB0112D2F848
:10239000B8211A70026802EB0112D2F8B821C2F318
:1023A00007225A70026802EB0112D2F8B821C2F378
:1023B00007429A70026802EB0112D2F8B821120E9D
:1023C000DA70026802EB0112D2F8BC211A710268BD
:1023D00002EB0112D2F8BC21C2F307225A71026843
:1023E00002EB0112D2F8BC21C2F307429A710268D3
:1023F00002EB0112D2F8BC21120EDA71C1B90268E7
:10240000D36843F02003D360002030BC70470568D8
:1024100001F11B0424012C59E408546092E701F1F6
:102420001B0504EB0514646804F00F0414619CE7B9
:102430000268136943F020031361E5E7436A43F43C
:10244000802343620120704790F82030013BDBB2CB
:10245000012B05D9436A43F480234362012070476E
:10246000026853690B4353610020704770477047FF
:1024700070477047704770477047704770477047A4
:10248000704770472DE9F84F054603685C69D3F83B
:1024900004809F68D3F80CA0D3F81090D3F818B03C
:1024A00014F001063BD017F0010616D001229A6005
:1024B00017F0020F08D117F0040F0CD117F008061F
:1024C00006D04FF4805608E0FFF7D0FF002604E066
:1024D000FFF7CFFF01E04FF4006617F4807F0DD0C7
:1024E0002B684FF480729A6017F4007F40F096805A
:1024F00017F4806F00F0968046F4005617F4803F82
:102500000DD02B684FF480329A6017F4003F40F0F2
:10251000938017F4802F00F0938046F4004614F067
:10252000080F07D01AF0100F04D046F400762B687D
:102530001022DA6014F0040F03D01AF0080F40F0F4
:10254000898014F0020F05D02B68DB6813F0030FAD
:1025500040F0878014F0400F07D019F0100F04D01E
:1025600046F480662B6810221A6114F0200F02D006
:1025700019F0080F79D114F0100F04D02B681B69E3
:1025800013F0030F78D114F4003F02D018F0100FAD
:1025900076D114F4803F02D018F0080F77D114F4EC
:1025A000004F37D018F0040F31D014F4807F04D0DE
:1025B0001BF0010F01D046F0010614F4007F04D097
:1025C0001BF0020F01D046F0020614F4806F04D015
:1025D0001BF0040F01D046F0040614F4006F16D06F
:1025E0001BF0700B13D0BBF1400F66D056D8BBF177
:1025F000200F5CD0BBF1300F5CD0BBF1100F01D1CC
:1026000046F008062A68936923F0700393612B68EB
:1026100004225A60002E56D1BDE8F88F2846FFF7F5
:1026200026FF6BE717F4006F02D046F4804665E79B
:102630002846FFF71FFF61E72846FFF719FF6EE7FF
:1026400017F4002F02D046F4803668E72846FFF7DB
:1026500012FF64E72B680822DA602846FFF70CFFB8
:102660006FE7284603F004F874E72B6808221A6124
:102670002846FFF703FF7EE72846FFF7FEFE82E7C6
:102680002B6810225A602846FFF7F9FE81E72B6875
:1026900008225A602846FFF7F3FE80E7BBF1500F8F
:1026A0000ED0BBF1600FADD146F48076AAE746F0BC
:1026B0001006A7E746F02006A4E746F04006A1E78B
:1026C00046F080069EE76B6A33436B622846FFF74D
:1026D000D8FEA1E7002807DB00F01F024009012314
:1026E0009340024A42F82030704700BF00E100E00A
:1026F000002808DB0901C9B200F1604000F5614023
:1027000080F80013704700F00F000901C9B2014BB7
:102710001954704714ED00E000B500F00700C0F157
:10272000070CBCF1040F28BF4FF0040C031D062B4F
:102730000FD9C31E4FF0FF3E0EFA0CF021EA000144
:1027400099400EFA03FE22EA0E0241EA02005DF809
:1027500004FB0023EEE70000074AD36823F4E0639C
:102760001B041B0C000200F4E060034343F0BF6352
:1027700043F40033D360704700ED00E010B5044629
:10278000054BD868C0F30220FFF7C6FF014620467C
:10279000FFF7AEFF10BD00BF00ED00E008B5FFF78A
:1027A00099FF08BD30B405682C6824F480242C609F
:1027B000046863608368402B05D0036899600368F0
:1027C000DA6030BC704703689A600368D960F8E744
:1027D00010B40368D9B210390A4AA2FB01421209A7
:1027E000094CA25CC2655F2907D96FF30903043362
:1027F0008365806D5DF8044B70476FF30903836553
:10280000F7E700BFABAAAAAAE4EC0008836A8269D2
:1028100092B9012B0AD0022B02D00BB100207047D5
:10282000C36A13F0807F28D100207047C36AB3F1D8
:10283000C07F24D000207047B2F5005F09D0022B82
:1028400025D9032B25D1C36A13F0807F23D1002023
:102850007047032B03D8DFE803F01404140A0020A8
:102860007047C36A13F0807F0DD100207047C36AA0
:10287000B3F1C07F09D000207047012070470120CC
:1028800070470120704701207047012070470120E8
:1028900070470020704701207047000070B5044663
:1028A000FFF732FB002C5BD00546022384F835305D
:1028B000002384F834302268136823F00103136086
:1028C00023681A6812F0010F0AD0FFF71DFB431BA3
:1028D000052BF5D920236365032084F8350070BDEE
:1028E0001A68204911406268A0680243E068024308
:1028F0002069024360690243A0690243E069024320
:10290000206A02430A43616A04291ED01A602668BD
:10291000756925F00705636A1D43042B07D1A36A77
:102920001D43E36A1BB12046FFF770FF90B9756144
:102930002046FFF74DFFE26D3F2393408360002068
:102940006065012384F83530C9E7E16A206B0143F3
:102950000A43DBE740236365012084F83500BEE7C6
:102960000120BCE73F8010F038B50446856D90F833
:10297000340001282BD0012084F8340094F835006D
:10298000C0B2012804D0002384F83430022038BDBE
:10299000022084F83500002060652046FFF702FF22
:1029A000E26D3F239340AB602268136843F0160347
:1029B0001360236C23B12268136843F0080313608B
:1029C0002268136843F0010313600020DFE7022050
:1029D000DDE770B50446866DFFF796FA94F835305A
:1029E000DBB2022B06D080236365002384F83430E9
:1029F000012070BD05462268136823F0160313609A
:102A00002268536923F080035361236CE3B1226889
:102A1000136823F0080313602268136823F001038E
:102A2000136023681B6813F0010F11D0FFF76CFAD5
:102A3000431B052BF5D920236365032084F835005B
:102A4000002384F83430D4E7A36C002BDFD1E3E714
:102A5000E26D3F239340B360012384F835300020BA
:102A600084F83400C5E790F83530DBB2022B03D090
:102A70008023436501207047052380F835300268C4
:102A8000136823F00103136000207047F0B583B092
:102A9000044600230193724B1D68724BA3FB05355E
:102AA000AD0A876D3E68C26D08239340334210D053
:102AB00003681A6812F0040F0BD01A6822F004029F
:102AC0001A60C26D08239340BB60436D43F001035D
:102AD0004365E26D01239340334209D02268526975
:102AE00012F0800F04D0BB60636D43F00203636596
:102AF000E26D04239340334209D02268126812F039
:102B0000020F04D0BB60636D43F004036365E26DA4
:102B100010239340334224D02268126812F0080F29
:102B20001FD0BB6023681A6812F4802F0DD01B6879
:102B300013F4002F04D1236C9BB12046984710E07A
:102B4000A36C73B1204698470BE01A6812F4807F9B
:102B500003D11A6822F008021A60236C0BB12046D8
:102B60009847E26D20239340334255D02268126883
:102B700012F0100F50D0BB6094F83530DBB2052B4B
:102B80000ED023681A6812F4802F33D01B6813F418
:102B9000002F2AD1636C002B3ED0204698473BE0A3
:102BA0002268136823F0160313602268536923F028
:102BB00080035361236CA3B12268136823F00803D8
:102BC0001360E26D3F239340BB60012384F83530EE
:102BD000002384F83430236D002B3FD020469847E3
:102BE0003CE0A36C002BE7D1EBE7E36BA3B12046FD
:102BF000984711E01A6812F4807F09D11A6822F010
:102C000010021A60012384F83530002384F8343030
:102C1000E36B0BB120469847636DFBB1636D13F016
:102C2000010F17D0052384F835302268136823F08C
:102C300001031360019B01330193AB4204D8236865
:102C40001B6813F0010FF5D1012384F83530002300
:102C500084F83430E36C0BB12046984703B0F0BDE4
:102C600004000020B5814E1B00230F2B00F2E980E9
:102C700070B582B065E085684FEA430E032404FA1C
:102C80000EF425EA0405CC6804FA0EF42C438460A3
:102C9000446824EA02044A68C2F300129A402243BC
:102CA00042605CE0DC08083450F8242003F007059B
:102CB000AD004FF00F0E0EFA05FE22EA0E0E0A6965
:102CC000AA4042EA0E0240F824205CE0072200E01D
:102CD000002202FA0EF22A4302345A4D45F824200B
:102CE000594A94686FEA0C0224EA0C054E6816F4FF
:102CF000801F01D04CEA0405534CA560E46802EA49
:102D000004054E6816F4001F01D04CEA04054E4C31
:102D1000E560646802EA04054E6816F4003F01D0DD
:102D20004CEA0405484C6560246822404D6815F45F
:102D3000803F01D04CEA0402434C226001330F2B48
:102D40007DD801229A400C6804EA020C32EA04049D
:102D5000F4D14C6804F00304013C012C8BD94A687F
:102D600002F00302032A09D0C4685D000322AA40CE
:102D700024EA02048A68AA402243C2604A6802F038
:102D80000302022A8ED004684FEA430E032202FA9D
:102D90000EF224EA02044A6802F0030202FA0EF27A
:102DA000224302604A6812F4403FC7D000220192D9
:102DB000264A546C44F480445464526C02F48042B9
:102DC0000192019A9C08A51C1E4A52F8255003F056
:102DD000030E4FEA8E0E0F2202FA0EF225EA0205CA
:102DE0001B4A90423FF474AF02F5806290421AD0C1
:102DF00002F58062904218D002F58062904216D0AF
:102E000002F58062904214D002F58062904212D0A6
:102E100002F58062904210D002F5806290423FF449
:102E200055AF082255E7012253E7022251E703225A
:102E30004FE704224DE705224BE7062249E702B09F
:102E400070BD704700380140003C0140003802402E
:102E5000000002400AB18161704709048161704736
:102E6000436901EA030221EA030141EA0241816167
:102E700070470000002800F0E08170B582B0044681
:102E8000036813F0010F3BD09F4B9B6803F00C03CA
:102E9000042B2CD09C4B9B6803F00C03082B21D0F7
:102EA0006368B3F5803F4FD0B3F5A02F52D0964B57
:102EB0001A6822F480321A601A6822F480221A609A
:102EC0006368002B50D0FFF71FF805468E4B1B6838
:102ED00013F4003F14D1FFF717F8401B6428F5D90D
:102EE0000320B1E1884B5B6813F4800FD8D0864B88
:102EF0001B6813F4003F03D06368002B00F09F8130
:102F0000236813F0020F54D07F4B9B6813F00C0F13
:102F10003ED07D4B9B6803F00C03082B33D0E36855
:102F2000002B68D0794B01221A60FEF7EDFF0546B1
:102F3000754B1B6813F0020F54D1FEF7E5FF401BE1
:102F40000228F5D903207FE16F4A136843F48033E8
:102F50001360B5E76C4B1A6842F480221A601A6855
:102F600042F480321A60ABE7FEF7CEFF0546664BAF
:102F70001B6813F4003FC3D0FEF7C6FF401B642854
:102F8000F5D9032060E1604B5B6813F4800FC6D174
:102F90005D4B1B6813F0020F03D0E368012B40F078
:102FA0005081594A136823F0F803216943EAC103A9
:102FB0001360236813F0080F42D063696BB3534B5F
:102FC0000122C3F8802EFEF79FFF05464E4B5B6F34
:102FD00013F0020F34D1FEF797FF401B0228F5D9FA
:102FE000032031E1484A136823F0F803216943EADA
:102FF000C1031360DDE7454B00221A60FEF784FF32
:103000000546414B1B6813F0020FD2D0FEF77CFF40
:10301000401B0228F5D9032016E13C4B0022C3F8DF
:10302000802EFEF771FF0546374B5B6F13F0020FE2
:1030300006D0FEF769FF401B0228F5D9032003E103
:10304000236813F0040F77D02F4B1B6C13F0805FB5
:1030500033D1002301932C4B1A6C42F080521A6436
:103060001B6C03F080530193019B0125284B1B68C7
:1030700013F4807F23D0A368012B34D0052B38D0E4
:10308000214B1A6F22F001021A671A6F22F0040214
:103090001A67A368002B3DD0FEF736FF06461A4B91
:1030A0001B6F13F0020F46D1FEF72EFF801B41F27B
:1030B00088339842F3D90320C6E00025D6E7144AA6
:1030C000136843F480731360FEF71EFF0646104B2F
:1030D0001B6813F4807FCED1FEF716FF801B0228F9
:1030E000F5D90320B0E0084A136F43F001031367DA
:1030F000CFE7054B1A6F42F004021A671A6F42F0CD
:1031000001021A67C5E700BF0038024000004742CD
:1031100000700040FEF7F8FE0646524B1B6F13F09E
:10312000020F08D0FEF7F0FE801B41F28833984270
:10313000F3D9032088E0EDB9A369002B00F0838068
:10314000484A926802F00C02082A51D0022B17D08C
:10315000454B00221A66FEF7D7FE0446414B1B681A
:1031600013F0007F42D0FEF7CFFE001B0228F5D9F6
:10317000032069E03B4A136C23F080531364DBE7C0
:10318000394B00221A66FEF7BFFE0546354B1B6819
:1031900013F0007F06D0FEF7B7FE401B0228F5D9DA
:1031A000032051E0E369226A1343626A43EA82130F
:1031B000A26A5208013A43EA0243E26A43EA02631E
:1031C000284A5360284B01221A66FEF79DFE0446EA
:1031D000244B1B6813F0007F06D1FEF795FE001B01
:1031E0000228F5D903202FE000202DE000202BE05D
:1031F000012B2BD01B4B5B6803F48001E2699142E9
:1032000026D103F03F02216A8A4223D1616A47F640
:10321000C0721A40B2EB811F1ED103F44031A26A82
:103220005208013AB1EB024F18D103F07063E26A21
:10323000B3EB026F14D1002006E00120704701209B
:1032400002E0012000E0002002B070BD0120FBE799
:103250000120F9E70120F7E70120F5E70120F3E776
:103260000120F1E7003802400000474208B5264B34
:103270009B6803F00C03042B41D0082B41D1224B57
:103280005A6802F03F025B6813F4800F12D01E4BA5
:103290005968C1F388111D480023A1FB0001FDF707
:1032A0009BF9194B5B68C3F3014301335B00B0FB2F
:1032B000F3F008BD144B5868C0F388104FEA401C67
:1032C000BCEB000C6EEB0E0E4FEA8E1343EA9C63D0
:1032D0004FEA8C11B1EB0C0163EB0E03DB0043EA08
:1032E0005173C90011EB000C43F100039902002354
:1032F0004FEA8C2041EA9C51FDF76EF9D1E7034873
:10330000D7E70348D5E700BF00380240001BB700ED
:103310000024F400002800F09B8070B50D460446A0
:103320004F4B1B6803F007038B4208D2CBB24C4AC9
:103330001370136803F007038B4240F08B802368FF
:1033400013F0020F17D013F0040F04D0454A93680E
:1033500043F4E0539360236813F0080F04D0414A0C
:10336000936843F4604393603E4A936823F0F0030C
:10337000A1680B439360236813F0010F32D0636898
:10338000012B21D09A1E012A25D9364A126812F043
:10339000020F61D033498A6822F0030213438B6025
:1033A000FEF7B2FD06462F4B9B6803F00C036268E4
:1033B000B3EB820F16D0FEF7A7FD801B41F28833D6
:1033C0009842F0D9032042E0264A126812F4003FE6
:1033D000E0D101203BE0234A126812F0007FD9D1EE
:1033E000012034E01E4B1B6803F00703AB4207D9F2
:1033F000EAB21B4B1A701B6803F00703AB422DD1D6
:10340000236813F0040F06D0164A936823F4E053A0
:10341000E1680B439360236813F0080F07D0114A4B
:10342000936823F46043216943EAC1039360FFF783
:103430001DFF0C4B9B68C3F303130B4AD35CD840AE
:103440000A4B18600A4B1868FEF7C8F8002070BDD8
:10345000012070470120FAE70120F8E70120F6E794
:10346000003C024000380240D4EC00080400002078
:103470000C000020014B1868704700BF04000020BA
:1034800008B5FFF7F7FF044B9B68C3F38223034A99
:10349000D35CD84008BD00BF00380240CCEC000827
:1034A00008B5FFF7E7FF044B9B68C3F34233034AB9
:1034B000D35CD84008BD00BF00380240CCEC000807
:1034C0000F2303600B4B9A6802F0030242609A6874
:1034D00002F0F00282609A6802F4E052C2609B68D7
:1034E000DB0803F4E0530361034B1B6803F007039D
:1034F0000B60704700380240003C024030B4036A61
:10350000026A22F0010202624268846924F0730CAC
:103510000C6844EA0C0423F0020C8B6843EA0C03A9
:10352000114DA84203D005F58065A84205D123F0CE
:103530000803CD682B4323F004030B4DA84203D0AE
:1035400005F58065A84207D122F440724D6945EA2D
:10355000020C8A6942EA0C02426084614A68426352
:10356000036230BC704700BF0000014030B4036A02
:10357000026A22F4807202624268C46924F0730C09
:103580000C6844EA0C0523F400738C6843EA0423B6
:10359000114CA04203D004F58064A04206D123F46C
:1035A0000063CC6843EA042323F480630A4CA042FE
:1035B00003D004F58064A04207D122F440524C6944
:1035C00042EA04128C6942EA04124260C5614A6808
:1035D000C263036230BC70470000014030B4036A2C
:1035E000026A22F4805202624468C26922F4E6420E
:1035F0000D6842EA052223F400538D6843EA05333F
:10360000094DA84203D005F58065A84204D124F4F1
:1036100080444D6944EA85144460C2614A6802648A
:10362000036230BC704700BF0000014010B4036A61
:10363000046A24F001040462846924F0F00C4CEA6A
:10364000021223F00A030B43826103625DF8044B0C
:10365000704710B4036A046A24F010040462846999
:1036600024F4704C4CEA023223F0A00343EA011325
:10367000826103625DF8044B7047836823F0700336
:103680000B4343F0070383607047000090F83D3020
:10369000DBB2012B32D1022380F83D300368194A96
:1036A000934220D0B3F1804F1DD0A2F57C429342CB
:1036B00019D002F58062934215D002F580629342E0
:1036C00011D002F5784293420DD002F57052934228
:1036D00009D0A2F59432934205D01A6842F0010253
:1036E0001A60002070479A6802F00702062A07D085
:1036F0001A6842F001021A600020704701207047EA
:10370000002070470000014090F83D30DBB2012BF3
:1037100037D1022380F83D300268D36843F00103BB
:10372000D3600368194A934220D0B3F1804F1DD073
:10373000A2F57C42934219D002F58062934215D0E3
:1037400002F58062934211D002F5784293420DD087
:1037500002F57052934209D0A2F59432934205D0FB
:103760001A6842F001021A60002070479A6802F05D
:103770000702062A07D01A6842F001021A600020E8
:103780007047012070470020704700BF00000140D3
:103790007047704770477047704770B504460368BC
:1037A000DE681D6915F0020F10D016F0020F0DD063
:1037B0006FF002021A610123037703689B6913F01B
:1037C000030F5ED0FFF7E6FF0023237715F0040F09
:1037D00012D016F0040F0FD023686FF004021A61A4
:1037E0000223237723689B6913F4407F4FD0204640
:1037F000FFF7D0FF0023237715F0080F12D016F043
:10380000080F0FD023686FF008021A610423237792
:103810002368DB6913F0030F40D02046FFF7BAFF9F
:103820000023237715F0100F12D016F0100F0FD0D1
:1038300023686FF010021A61082323772368DB697D
:1038400013F4407F31D02046FFF7A4FF00232377F5
:1038500015F0010F02D016F0010F2DD115F0800FD9
:1038600002D016F0800F2FD115F0400F02D016F0C5
:10387000400F31D115F0200F02D016F0200F33D1B8
:1038800070BDFFF786FF2046FFF785FF9CE72046C7
:10389000FFF77FFF2046FFF77EFFABE72046FFF7ED
:1038A00078FF2046FFF777FFBAE72046FFF771FF62
:1038B0002046FFF770FFC9E723686FF001021A6125
:1038C0002046FDF799FDC9E723686FF080021A6171
:1038D000204600F009FBC7E723686FF040021A6139
:1038E0002046FFF759FFC5E723686FF020021A61F1
:1038F000204600F0F8FAC3E70368344A904212D039
:10390000B0F1804F0FD0A2F57C4290420BD002F56F
:103910008062904207D002F58062904203D002F5A7
:103920007842904203D123F070034A681343274A38
:1039300090422AD0B0F1804F27D0A2F57C4290422D
:1039400023D002F5806290421FD002F5806290423F
:103950001BD002F57842904217D002F57052904287
:1039600013D002F5806290420FD002F5806290423F
:103970000BD0A2F59832904207D002F580629042B7
:1039800003D002F58062904203D123F44073CA68E9
:10399000134323F080034A69134303608B68C362B7
:1039A0000B688362094B984203D003F58063984209
:1039B00001D10B69036301234361036913F0010F14
:1039C00003D0036923F00103036170470000014045
:1039D00040B310B5044690F83D30F3B1022384F8AB
:1039E0003D30214651F8040BFFF786FF012384F890
:1039F000463084F83E3084F83F3084F8403084F814
:103A0000413084F8423084F8433084F8443084F8FC
:103A1000453084F83D30002010BD80F83C30FDF783
:103A2000E5FEDBE70120704740B310B5044690F88F
:103A30003D30F3B1022384F83D30214651F8040BA8
:103A4000FFF75AFF012384F8463084F83E3084F8AB
:103A50003F3084F8403084F8413084F8423084F8B4
:103A6000433084F8443084F8453084F83D300020F9
:103A700010BD80F83C30FFF78BFEDBE7012070477C
:103A800030B4036A026A22F010020262446882695A
:103A900022F4E6420D6842EA052223F020038D68F5
:103AA00043EA0513114DA84203D005F58065A842ED
:103AB00006D123F08003CD6843EA051323F04003C9
:103AC0000A4DA84203D005F58065A84207D124F429
:103AD00040644D6944EA85048D6944EA8504446084
:103AE00082614A688263036230BC70470000014013
:103AF00038B590F83C30012B66D004460D460123C2
:103B000080F83C300C2A5AD8DFE802F0075959599E
:103B10001B5959593059595944000068FFF7EEFCB8
:103B20002268936943F0080393612268936923F044
:103B3000040393612268936929690B439361002010
:103B40003EE00068FFF79CFF2268936943F400633E
:103B500093612268936923F4806393612268936977
:103B6000296943EA01239361002029E00068FFF7F7
:103B7000FDFC2268D36943F00803D3612268D3694E
:103B800023F00403D3612268D36929690B43D3610D
:103B9000002015E00068FFF721FD2268D36943F497
:103BA0000063D3612268D36923F48063D361226800
:103BB000D369296943EA0123D361002000E0012091
:103BC000002384F83C3038BD0220FCE710B4846840
:103BD00024F47F4C42EA03220A4342EA0C02826048
:103BE0005DF8044B704790F83C30012B78D010B54D
:103BF0000446012380F83C30022380F83D300268FF
:103C0000936823F47F4323F0770393600B68602B62
:103C10004CD023D8402B54D011D8202B03D00AD815
:103C20000BB1102B05D119462068FFF726FD0020A7
:103C300028E0012026E0302BF5D0012022E0502B97
:103C40000AD1CA6849680068FFF7F0FC5021206873
:103C5000FFF713FD002015E0012013E0B3F5805FAE
:103C60003AD0B3F5005F14D0702B37D1CB684A68D7
:103C700089680068FFF7AAFF2268936843F077031A
:103C800093600020012384F83D30002384F83C3009
:103C900010BDCB684A6889680068FFF797FF226803
:103CA000936843F4804393600020EBE7CA68496857
:103CB0000068FFF7CEFC60212068FFF7DEFC0020E3
:103CC000E0E7CA6849680068FFF7B0FC4021206857
:103CD000FFF7D3FC0020D5E70020D3E70120D1E790
:103CE0000220704701F01F014FF0010C0CFA01FC9B
:103CF000036A23EA0C030362036A8A4013430362E4
:103D00007047000010B504460846002942D194F8D7
:103D10003E30DBB2013B18BF0123002B6ED10028DF
:103D200051D1022384F83E30012201462068FFF77A
:103D3000D9FF2368334A934203D002F5806293424D
:103D400003D15A6C42F400425A6423682D4A9342CC
:103D500049D0B3F1804F46D0A2F57C42934242D085
:103D600002F5806293423ED002F5806293423AD0DF
:103D700002F57842934236D002F57052934232D027
:103D8000A2F5943293422ED01A6842F001021A60D2
:103D9000002032E0042908D008290DD094F84130E1
:103DA000DBB2013B18BF0123B7E794F83F30DBB229
:103DB000013B18BF0123B0E794F84030DBB2013B70
:103DC00018BF0123A9E7042805D0082807D002233B
:103DD00084F84130A8E7022384F83F30A4E70223A7
:103DE00084F84030A0E79A6802F00702062A07D05C
:103DF0001A6842F001021A60002010BD0120FCE7A1
:103E00000020FAE70000014090F83C20012A3DD054
:103E100010B40346012280F83C20022280F83D20A5
:103E200002685068946820F0700C086840EA0C0042
:103E300050601A68164882421AD0B2F1804F17D0EB
:103E4000A0F57C40824213D000F5806082420FD002
:103E500000F5806082420BD000F57840824207D0A6
:103E600000F57050824203D0A0F59430824204D114
:103E700024F08004496821439160012283F83D20A9
:103E8000002083F83C005DF8044B70470220704727
:103E900000000140024690F83C30012B21D0012364
:103EA00080F83C30CB6823F440738868034323F4E4
:103EB00080634868034323F400630868034323F4E2
:103EC00080530869034323F400534869034323F4F0
:103ED0008043C9690B4311684B64002082F83C00A1
:103EE00070470220704770477047026802F10C0368
:103EF00053E8003F23F0C0030C3242E800310029B0
:103F0000F3D1202380F841307047026802F10C039E
:103F100053E8003F23F490730C3242E8003100294B
:103F2000F3D1026802F1140353E8003F23F00103C8
:103F3000143242E800310029F3D1036B012B05D084
:103F4000202380F84230002303637047026802F1A7
:103F50000C0353E8003F23F010030C3242E8003119
:103F60000029F3D1ECE790F84130DBB2212B01D0EE
:103F7000022070478368B3F5805F17D0036A5A1C2C
:103F800002621A7803685A60C38C9BB2013B9BB2F1
:103F9000C3844BB90268D36823F08003D3600268FE
:103FA000D36843F04003D360002070470369002BBF
:103FB000E4D1036A1B880268C3F308035360036AF1
:103FC00002330362E0E7000010B50446026813699B
:103FD00023F44053C1680B431361836802691A4399
:103FE00043691A43C3691A430168CB6823F4164333
:103FF00023F00C031343CB600268536923F440732E
:1040000081690B4353610368314A934206D002F53C
:104010008062934202D0FFF733FA01E0FFF740FAE3
:10402000E369B3F5004F29D00021031849411B185B
:1040300041F10001C90041EA5371DB0018186368BF
:104040004FEA83024FEA937341F10001FCF7C4FA8F
:10405000204AA2FB00314909642303FB11031B0121
:104060003233A2FB03235B0903F0F00202EB0112DF
:1040700003F00F03216813448B6010BD0023021866
:1040800043EB0301121841F10001C90041EA5271EA
:10409000D200101841F10001626892185B41FCF7F0
:1040A0009BFA0C4AA2FB00314909642303FB11036C
:1040B000DB003233A2FB03235B095A0002F4F872DF
:1040C00002EB011203F00703216813448B60D4E76D
:1040D000001001401F85EB512DE9F04383B00546E8
:1040E0000E4617469946DDF828802B681C6836EA8C
:1040F00004040CBF01240024BC4228D1B8F1FF3FC6
:10410000F3D0FDF701FFA0EB0900404523D8B8F13B
:10411000000F22D02B68DA6812F0040FE5D0802E51
:10412000E3D0402EE1D01A6812F0080FDDD0002451
:1041300001941A6801925B680193019B2846FFF77E
:10414000E4FE08236B6485F84040012000E0002075
:1041500003B0BDE8F0830320FAE70320F8E760B37B
:1041600010B5044690F8413013B3242384F841304D
:104170002268D36823F40053D3602046FFF724FF5E
:104180002268136923F4904313612268536923F072
:104190002A0353612268D36843F40053D36000209C
:1041A0006064202384F8413084F84230606310BD9D
:1041B00080F84030FDF710FDD7E7012070472DE96A
:1041C000F04182B01E4690F84130DBB2202B56D130
:1041D00004460D469046002955D00AB901204FE00B
:1041E00000234364212380F84130FDF78DFE07460C
:1041F000A4F82480A4F82680A368B3F5805F02D0D9
:104200004FF0000814E023692BB34FF000080FE0D3
:10421000202384F84130032032E038F8023B226842
:10422000C3F308035360E28C92B2013A92B2E28483
:10423000E38C9BB293B100963B460022802120463E
:10424000FFF74AFF0028E3D1002DE6D015F8012B37
:1042500023685A60E7E7A8460025E9E700963B4651
:10426000002240212046FFF737FF18B9202384F8A9
:10427000413005E0202384F84130032000E0022093
:1042800002B0BDE8F0810120FAE7704708B5016887
:10429000CA6822F04002CA60202280F84120FFF75D
:1042A000F4FF002008BD7047704710B5846B236889
:1042B0005A6994F84130DBB2212B10D023685A6937
:1042C00002F0400294F84230DBB2222B11D0636C32
:1042D00043F0100363642046FFF7E6FF10BD02F0D1
:1042E0008002002AEAD00023E3842046FFF7FDFD88
:1042F000E4E7002AEBD00023E3852046FFF705FE24
:10430000E5E708B5806B0023C385C384FFF7CCFFC6
:1043100008BD704790F84230DBB2222B69D1836828
:10432000B3F5805F4FD0826AB3F5805F04D0002B75
:1043300056D10369002B53D103685B681370836AFD
:1043400001338362C38D9BB2013B9BB2C385002BBB
:1043500051D100B583B00268D36823F02003D36045
:104360000268D36823F48073D3600268536923F032
:1043700001035361202380F8423000234363036B21
:10438000012B33D100230363026802F10C0353E8CD
:10439000003F23F010030C3242E800310029F3D132
:1043A00003681A6812F0100F06D0002201921A68F2
:1043B00001925B680193019B818DFFF7AAFF0020AA
:1043C00003B05DF804FB0269002AACD1826A03687D
:1043D0005B68C3F308031380836A02338362B1E727
:1043E00003685B6803F07F031370A8E702F0E2FE46
:1043F000E5E70220704700207047000010B582B04A
:10440000044602681368D068516913F00F0F09D190
:1044100013F0200F0CD010F0200F09D02046FFF72A
:1044200079FF16E011F0010115D110F4907F12D13F
:10443000216B012979D013F0800F03D010F0800F89
:1044400040F0148113F0400F03D010F0400F40F003
:10445000118102B010BD13F0010F06D010F4807F5F
:1044600003D0626C42F00102626413F0040F04D0C6
:1044700019B1626C42F00202626413F0020F04D0C0
:1044800019B1626C42F00402626413F0080F07D0A5
:1044900010F0200F00D119B1626C42F00802626482
:1044A000626C002AD5D013F0200F02D010F0200F3C
:1044B00029D123685B6903F04003626C12F0080F96
:1044C00000D163B32046FFF720FD23685B6913F03A
:1044D000400F20D0226802F1140353E8003F23F07C
:1044E0004003143242E800310029F3D1E36B73B189
:1044F000624A1A65E06BFEF7B6FA0028A9D0E06BB5
:10450000036D9847A5E72046FFF704FFD1E7204653
:10451000FFF7CAFE9DE72046FFF7C6FE99E7204653
:10452000FFF7C2FE0023636493E713F0100F82D0FD
:1045300010F0100F3FF47FAF002301931368019335
:1045400053680193019B536913F0400F52D0E26B03
:1045500013685B689BB2002B3FF47BAFA18D99423F
:104560007FF677AFE385D369B3F5807F37D02268D4
:1045700002F10C0353E8003F23F480730C3242E84D
:1045800000310029F3D1226802F1140353E8003FFF
:1045900023F00103143242E800310029F3D12268EC
:1045A00002F1140353E8003F23F04003143242E8C1
:1045B00000310029F3D1202384F842300023236303
:1045C000226802F10C0353E8003F23F010030C3281
:1045D00042E800310029F3D1E06BFEF7FAF902233B
:1045E0006363A18DE38D9BB2C91A89B22046FFF7A0
:1045F00090FE2EE7A18DE38D9BB2C91A89B2E38D9F
:104600009BB2002B3FF425AF00293FF422AF226874
:1046100002F10C0353E8003F23F490730C3242E89C
:1046200000300028F3D1226802F1140353E8003F60
:1046300023F00103143242E800300028F3D1202394
:1046400084F8423000232363226802F10C0353E80C
:10465000003F23F010030C3242E800300028F3D171
:10466000022363632046FFF754FEF2E62046FFF77D
:104670007AFCEEE62046FFF709FEEAE6034300086F
:1046800008B5806B01234363036B012B02D0FFF756
:104690000AFE08BD818D4908FFF73BFEF9E708B522
:1046A0000346806B1B681B6813F4807F2BD10023AB
:1046B000C385026802F10C0353E8003F23F48073C2
:1046C0000C3242E800310029F3D1026802F11403F0
:1046D00053E8003F23F00103143242E8003100297F
:1046E000F3D1026802F1140353E8003F23F04003C2
:1046F000143242E800310029F3D1202380F84230FF
:10470000036B012B07D000234363036B012B0FD0F6
:1047100002F050FD08BD026802F10C0353E8003FAF
:1047200023F010030C3242E800310029F3D1EAE70C
:10473000818DFFF7EEFDEDE730B583B004461346FB
:104740008162828500254564222280F84220C26B66
:104750001F48D063E26B1F481064E26B1E48D064B0
:10476000E26B156520680A46011DE06BFEF7FCF858
:10477000019523681A6801925B680193019B236984
:104780005BB1226802F10C0353E8003F43F48073ED
:104790000C3242E800310029F3D1226802F11403FF
:1047A00053E8003F43F00103143242E8003100298E
:1047B000F3D1226802F1140353E8003F43F04003B1
:1047C000143242E800310029F3D1002003B030BD9B
:1047D0009F46000881460008AB42000808B590F8E3
:1047E0004230DBB2202B08D149B10AB9012008BD03
:1047F00000230363FFF7A0FFF9E70220F7E701209A
:10480000F5E7842801D0033070470020704708B5D1
:1048100000F064FD002008BD2DE9F04387B00E468E
:104820004469C4B18569B5B14768D0F80080D0F853
:104830001090B0F90800FFF7E4FF02950194009092
:1048400033464A464146384600F0D8FC0590059864
:1048500007B0BDE8F083446805680769B0F908004F
:10486000FFF7CFFF05AB019300903346BAB229465C
:10487000204600F000FD0128E9D00020E8E708B557
:1048800000B9012000F07CFE002008BD00F1080303
:1048900043604FF0FF328260C36003610023036016
:1048A000704700230361704743684B609A688A60D1
:1048B000516099600861036801330360704730B448
:1048C0000D68B5F1FF3F11D000F108031C465B688D
:1048D0001A68AA42FAD963684B6099608C6061607B
:1048E000086103680133036030BC70470469F2E774
:1048F0000369416882688A60416851605A688242EF
:1049000006D0002202611A68013A1A6018687047DE
:1049100082685A60F5E7000082B0002301930D4BD6
:104920001B68B3F1FF3F08D04FF0500383F31188A9
:10493000BFF36F8FBFF34F8FFEE74FF0500383F34A
:104940001188BFF36F8FBFF34F8F019B002BFCD0FB
:1049500002B070471000002008480068006880F32B
:1049600008884FF0000080F3148862B661B6BFF388
:104970004F8FBFF36F8F00DF00BF000008ED00E036
:10498000DFF80C00016841F470010160704700001D
:1049900088ED00E04FF0807340F8043C21F0010105
:1049A00040F8081C054B40F80C3C40F8202C6FF0F8
:1049B000020340F8243C4438704700BF19490008FE
:1049C000074B19680868B0E8F04F80F30988BFF317
:1049D0006F8F4FF0000080F311887047AFF30080B5
:1049E000004D00204FF0500383F31188BFF36F8F09
:1049F000BFF34F8F0B4A136801331360012B00D0B4
:104A000070474FF0E023D3F8043D13F0FF0FF7D0C9
:104A10004FF0500383F31188BFF36F8FBFF34F8FB5
:104A2000FEE700BF10000020094B1B6843B94FF0A0
:104A3000500383F31188BFF36F8FBFF34F8FFEE7EF
:104A4000013B034A13600BB983F31188704700BF21
:104A50001000002000000000000000000000000026
:104A6000EFF30980BFF36F8F154B1A681EF0100F1C
:104A700008BF20ED108A20E9F04F10602DE90900F1
:104A80004FF0500080F31188BFF34F8FBFF36F8F4B
:104A900000F09CFD4FF0000080F3118809BC1968FC
:104AA0000868B0E8F04F1EF0100F08BFB0EC108A95
:104AB00080F30988BFF36F8F704700BFAFF30080AA
:104AC000004D002008B54FF0500383F31188BFF369
:104AD0006F8FBFF34F8F00F04BFC28B14FF0E023F6
:104AE0004FF08052C3F8042D002383F3118808BDD2
:104AF0004FF0E022002313619361054B1B680549C9
:104B0000A1FB03139B09013B53610723136170470A
:104B100004000020D34D62104FF0E023D3F8002DA5
:104B20003D4B9A421CD04FF0E023D3F8002D3B4B75
:104B30009A421ED030B583B0394B1A78D2B2019266
:104B4000FF221A701B78DBB28DF803309DF803301A
:104B500003F05003334A1370334B07221A601BE0F3
:104B60004FF0500383F31188BFF36F8FBFF34F8F64
:104B7000FEE74FF0500383F31188BFF36F8FBFF34D
:104B80004F8FFEE7284A1368013B13609DF80330FE
:104B90005B00DBB28DF803309DF8033013F0800F1B
:104BA000F0D1214B1B68032B08D04FF0500383F347
:104BB0001188BFF36F8FBFF34F8FFEE71B021A4AB6
:104BC000136003F4E0631360019BDBB2144A1370BB
:104BD0004FF0E024D4F8203D43F47003C4F8203DA6
:104BE000D4F8203D43F07043C4F8203DFFF780FF28
:104BF00000250E4B1D60FFF7C3FED4F8343F43F091
:104C00004043C4F8343FFFF7A7FE00F0DFFCFFF796
:104C100083FE284603B030BD71C20F4170C20F4100
:104C200000E400E0B40F0020B00F002010000020CE
:104C3000124A12F0070F1ED0D11D21F00701C1F555
:104C4000705313440A460E48026000214160134429
:104C5000083B23F007030B48036059601960991A59
:104C600051601360084B1960084B1960084B4FF0F6
:104C700000421A6070474FF47053E4E7D80F0020E9
:104C8000D00F0020CC0F0020C40F0020C80F002040
:104C9000B80F0020164B1A461B688342FBD351689D
:104CA00002EB010C844509D0416800EB010C63451F
:104CB00009D00360904219D01060704740680144E9
:104CC00051601046F0E710B40A4C2468A3420BD0A0
:104CD0005B681944416013681B680360904200D010
:104CE00010605DF8044B70470460F7E7704700BF41
:104CF000D00F0020CC0F002038B5044600F030FB68
:104D0000384B1B68B3B1384B1B681C4250D1002C88
:104D100050D004F1080214F0070F02D022F007026D
:104D20000832002A55D0314B1B68934253D3304987
:104D30000C6804E0FFF77CFFE5E721461C4663684A
:104D4000934202D22368002BF7D1264B1B68A34263
:104D500043D00D68083523680B6063689B1A102BDD
:104D600010D9A01810F0070F08D04FF0500383F3AC
:104D70001188BFF36F8FBFF34F8FFEE74360626010
:104D8000FFF788FF626819490B689B1A0B60194985
:104D900009688B4201D217490B60134B1B68134300
:104DA000636000232360144A13680133136002E038
:104DB000002500E0002500F067FB15F0070F0ED07E
:104DC0004FF0500383F31188BFF36F8FBFF34F8F02
:104DD000FEE70025EFE70025EDE70025EBE7284695
:104DE00038BD00BFCC0F0020B80F0020C80F002036
:104DF000D00F0020C40F0020C00F0020002834D0A6
:104E000038B50446A0F1080550F8043C174A12686A
:104E1000134208D14FF0500383F31188BFF36F8F13
:104E2000BFF34F8FFEE750F8081C41B14FF050031D
:104E300083F31188BFF36F8FBFF34F8FFEE723EA31
:104E4000020340F8043C00F08BFA54F8041C084AB2
:104E500013680B4413602846FFF71CFF054A1368CC
:104E60000133136000F010FB38BD7047B80F00200D
:104E7000C80F0020BC0F0020084B1B681B6823B91B
:104E8000074B4FF0FF321A607047044B1B68DB681A
:104E9000DB685A68024B1A60704700BF484C00201C
:104EA000E04B00202DE9F04707469846089DDDF8C5
:104EB00024900A9C266B02F18042013A06EB82069E
:104EC00026F00706002964D008464FF0000CBCF11C
:104ED0000F0F09D810F80C2004EB0C0383F83420D2
:104EE00012B10CF1010CF2E7002384F84330062DD7
:104EF00000D90625E56265644FF0000AC4F848A0B1
:104F0000201DFFF7CEFC04F11800FFF7CAFC246156
:104F1000C5F10705A5616462C4F890A184F894A165
:104F20004FF4A072514604F1500002F067FC1B4B95
:104F3000636503F16802A265D033E36501220023B3
:104F4000C4E93A2343F20E33A4F8F0304AF6CD33E5
:104F5000A4F8F23041F23423A4F8F4304EF26D6339
:104F6000A4F8F6304DF6EC63A4F8F8300523A4F865
:104F7000FA300B23A4F8FC30424639463046FFF79E
:104F800009FD2060B9F1000F01D0C9F80040BDE86B
:104F9000F087002384F83430A9E700BFD052002006
:104FA00038B5002407E004EB840293000E4818444F
:104FB000FFF76CFC0134062CF5D90C4D2846FFF7A1
:104FC00065FC0B4C2046FFF761FC0A48FFF75EFCCE
:104FD0000948FFF75BFC0948FFF758FC084B1D60C8
:104FE000084B1C6038BD00BF744C0020604C002092
:104FF0004C4C0020304C00201C4C0020044C002065
:10500000484C0020444C002010B50446FFF7EAFC51
:10501000214A136801331360204B1B685BB1204B9E
:105020001B686BB91D4B1B68DA6AE36A9A4207D8A2
:105030001A4B1C6004E0194B1C601368012B28D02C
:10504000184A136801331360E06A01238340164A4B
:1050500011680B43136000EB8000211D134B03EB21
:105060008000FFF721FCFFF7DFFC0D4B1B687BB1D5
:105070000A4B1B68DA6AE36A9A4209D24FF0E023CE
:105080004FF08052C3F8042DBFF34F8FBFF36F8FE3
:1050900010BDFFF785FFD3E7004C0020004D002036
:1050A000F44B0020E44B0020F84B0020744C00200F
:1050B00010B50446503002F005FC94F8953163B108
:1050C000012B11D0022B0ED04FF0500383F3118827
:1050D000BFF36F8FBFF34F8FFEE7206BFFF78EFE9E
:1050E0002046FFF78BFE10BD2046FFF787FEFAE74C
:1050F0000F4B1B68D3B110B5FFF774FC0D4BDB6889
:10510000DC68201DFFF7F4FB0B4A1368013B1360BA
:10511000074A1368013B1360FFF786FC2046FFF740
:10512000C7FF034B1B68002BE6D110BD704700BFC3
:10513000184C00201C4C0020004C002008B5FFF744
:10514000D7FF074B1B68012BF9D94FF0E0234FF035
:105150008052C3F8042DBFF34F8FBFF36F8FEEE77C
:10516000744C002070B504460D461D4B1E681D4B47
:1051700018680430FFF7BCFB48B91A4B1B68DB6AA0
:1051800001229A4018490B6823EA02030B60B4F12C
:10519000FF3F0DD03444134B1B685C60A64210D90E
:1051A000124B18680F4B19680431FFF788FB70BD6C
:1051B000002DEFD00B4B196804310D48FFF774FB3D
:1051C000F5E70C4B1868074B19680431FFF777FBBC
:1051D000094B1B68A342EAD9074B1C60E7E700BFF5
:1051E000FC4B0020004D0020F84B0020444C0020D8
:1051F000044C0020484C0020E04B002030B587B024
:105200000B9C8CB10C9DC5B14FF4CC750495049DDD
:10521000B5F5CC7F1AD04FF0500383F31188BFF35C
:105220006F8FBFF34F8FFEE74FF0500383F311886A
:10523000BFF36F8FBFF34F8FFEE74FF0500383F341
:105240001188BFF36F8FBFF34F8FFEE7049D0C9D56
:105250002C63022485F8954100240394029505AC43
:1052600001940A9C0094FFF71DFE0C98FFF7CCFEFA
:10527000059807B030BD2DE9F04385B00746884654
:1052800014461E469000FFF737FD10B381464FF4D9
:10529000CC70FFF731FD0546A8B1C0F8309000236F
:1052A00080F89531039302900D9B01930C9B009322
:1052B0003346224641463846FFF7F4FD2846FFF7BD
:1052C000A3FE012007E04846FFF798FD4FF0FF30AE
:1052D00001E04FF0FF3005B0BDE8F08310B588B0B5
:1052E00000240594069407AA06A905A8FBF724FF45
:1052F000059B0293069B019300942346079A10494D
:105300001048FFF77BFF104B1860B8B14FF0500307
:1053100083F31188BFF36F8FBFF34F8F0B4B1B6865
:1053200050330B4A13600B4B4FF0FF321A600A4B9D
:1053300001221A60094B1C60FFF7EEFB08B010BD9C
:10534000F8EA00083D510008DC4B0020004D002029
:10535000A4000020E04B0020F44B0020FC4B002078
:10536000024A136801331360704700BFD84B002016
:10537000F8B53A4B1B68002B69D1394B1D680135D4
:105380001D60C5B9374B1B681B6843B14FF0500314
:1053900083F31188BFF36F8FBFF34F8FFEE7314A5E
:1053A0001168314B186810601960304A1368013376
:1053B0001360FFF761FD2E4B1B68AB423DD9002700
:1053C0002C4B1B68DB6A03EB83039A002A4B9B5828
:1053D000012B00D90127294B1B68002B3CD001274A
:1053E0003AE001271F4B1B681B6843B31D4B1B682A
:1053F000DB68DC6863689D4226D3261D3046FFF7D4
:1054000077FAA36A1BB104F11800FFF771FAE36A97
:1054100001229A401A49086802430A6003EB830399
:105420009A00314614481044FFF73EFAE26A114BE5
:105430001B68DB6A9A42D4D2D4E70027D2E70C4B30
:105440004FF0FF321A60BBE7094A1360B8E70D4A14
:1054500013680133136000273846F8BDD84B00208D
:10546000FC4B0020484C0020444C0020E84B00201E
:10547000E04B0020004D0020744C0020EC4B00203D
:10548000F84B0020F04B002038B5354B1B6843B972
:105490004FF0500383F31188BFF36F8FBFF34F8F2B
:1054A000FEE7FFF79FFA2E4B1A68013A1A601B6855
:1054B000002B4FD12B4B1B680BB900244BE0002471
:1054C000294B1B681BB3284BDB68DC6804F1180010
:1054D000FFF70EFA251D2846FFF70AFAE06A0123B6
:1054E0008340224A11680B43136000EB8000294679
:1054F0001F4B03EB8000FFF7D7F9E26A1D4B1B68D7
:10550000DB6A9A42DCD31C4B01221A60D8E70CB14B
:10551000FFF7B2FC194B1C6884B9174B1C68D4B157
:105520004FF0E0234FF08052C3F8042DBFF34F8FAC
:10553000BFF36F8F01240EE0013C07D0FFF718FF87
:105540000028F9D00C4B01221A60F5E70B4B002222
:105550001A60E2E70024FFF767FA204638BD00BF73
:10556000D84B0020004C0020304C0020F84B00208D
:10557000744C0020004D0020EC4B0020F04B00202C
:1055800010B5A8B10446104B1B6843B14FF050034F
:1055900083F31188BFF36F8FBFF34F8FFEE7FFF7E1
:1055A000DFFE00212046FFF7DDFDFFF76DFF48B964
:1055B0004FF0E0234FF08052C3F8042DBFF34F8F1C
:1055C000BFF36F8F10BD00BFD84B0020224B1B686C
:1055D0001BB1224B01221A607047204B00221A6037
:1055E0001F4B1B68B3FA83F3DBB2C3F11F0303EB5A
:1055F00083018A001B498A5842B94FF0500383F354
:105600001188BFF36F8FBFF34F8FFEE7154803EB91
:1056100083018A00024451684968516003EB830C9E
:105620004FEA8C020832024491420DD003EB83030F
:105630009A000C4B13445B68DA680B4B1A601B68CA
:1056400050330A4A13607047486862469100054A21
:105650000A445060EAE700BFD84B0020EC4B002022
:10566000F84B0020744C0020004D0020A4000020C6
:1056700000B58BB0394B984205D0394B984237D0A2
:105680000BB05DF804FB01AB03AA0021FCF727FE79
:10569000039BA3F20122062AF2D8013BDBB2314A76
:1056A0001370314903EB830201EB420031F912C060
:1056B000A0F808C09DF804E09DF805C04CEA0E2C47
:1056C00021F812C09DF80620120212B29DF807C000
:1056D00042EA0C0242809DF80820120212B29DF8A4
:1056E00009C042EA0C0282809DF80A208271C7E755
:1056F00001AB03AA0021FCF7F2FD039BA3F20122F8
:10570000062ABDD8013BDBB2184A1370184903EBD7
:10571000830201EB420031F912C0A0F808C09DF8E5
:1057200004E09DF805C04CEA0E2C21F812C09DF84B
:105730000620120212B29DF807C042EA0C02428013
:105740009DF80820120212B29DF809C042EA0C022C
:1057500082809DF80A20827192E700BFB80700207E
:1057600090070020054D0020D04D0020044D002062
:10577000884D002010B582B08E469446104940F204
:10578000FF120A6000228A60CA6008220A610D4A7C
:105790004FEA2E24147082F801E04FEA202E82F89E
:1057A00002E0D0704FEA2C20107182F805C0181268
:1057B0009071D37101AB0448FCF71CFD02B010BD21
:1057C000104D0020084D00209007002010B582B039
:1057D0008E46944610494FF400720A6000228A6097
:1057E000CA6008220A610D4A4FEA2E24147082F81A
:1057F00001E04FEA202E82F802E0D0704FEA2C2020
:10580000107182F805C018129071D37101AB044871
:10581000FCF7F0FC02B010BD704D0020684D002078
:105820009007002010B582B08E4694460F494FF481
:1058300000720A6000228A60CA6008220A610C4A6B
:105840000412147050704FEA2E20907082F803E01A
:105850004FEA2C20107182F805C018129071D37194
:1058600001AB0448FCF7C6FC02B010BD504D00204F
:10587000484D00209007002010B582B08E46944617
:105880000F494FF400720A6000228A60CA60082241
:105890000A610C4A0412147050704FEA2E20907066
:1058A00082F803E04FEA2C20107182F805C018122C
:1058B0009071D37101AB0448FCF79CFC02B010BDA1
:1058C000504D0020484D0020B807002010B582B090
:1058D0008E4694460F4940F2FF120A6000228A6009
:1058E000CA6008220A610C4A0412147050704FEA10
:1058F0002E20907082F803E04FEA2C20107182F87D
:1059000005C018129071D37101AB0448FCF772FC0A
:1059100002B010BD304D0020284D0020B8070020F7
:1059200008B50E4C4FF480612046FDF799FA6420CB
:10593000FEF7A5FF4FF480512046FDF791FA642051
:10594000FEF79DFF4FF400612046FDF789FA6420C1
:10595000FEF795FF0120FEF792FFE2E7001C0240F0
:1059600010B58AB001220892002306930792009393
:10597000019302930393059304930E4C69462046CA
:10598000FCF76EFB2046FCF707FC02212046FCF7E3
:105990005BFD0E2309930593074C69462046FCF7EF
:1059A0005FFB2046FCF7F8FB02212046FCF74CFD8C
:1059B0000AB010BDB80700209007002010B4164BA5
:1059C0001B685C6944F040045C61DC6844F01004CE
:1059D000DC60124B1C68236823F00103236003E0A2
:1059E0001C6824F001041C600C4B1B681C6814F03C
:1059F000010FF5D10A4C9C60D86019615A601A6891
:105A000042F480221A60054B1A68136843F00103C0
:105A100013605DF8044B70471C0F0020140E00202B
:105A200004480040F8B504460D4616461F460023BC
:105A30001A461946BDF91C00FFF79CFE0023BDF96C
:105A4000282019461846FFF7C1FE00231A46BDF963
:105A50002410BDF92000FFF7E5FE3B4632462946FB
:105A60002046FFF709FF00231A461946BDF9180022
:105A7000FFF72CFFF8BD000000B587B00DE0002057
:105A80000490039002900190009003460246014664
:105A9000FFF7C8FF0120FEF7F2FE424BB3F90030DA
:105AA000414AB2F90020002A18BF002B0CBF012385
:105AB00000233E4AB2F900103D4AB2F90020002905
:105AC00008BF43F00103002BD9D1B2FA82F2520988
:105AD000002AD4D1374BB3F90030022B0FD0032B5F
:105AE00019D0012B3AD0002004900390029001902D
:105AF0000090034602460146FFF794FFCAE70020E4
:105B000004900390029001900090034602460146E3
