:020000040800F2
:1000000000000220751A0008D5150008D715000851
:10001000D9150008DB150008DD15000800000000F8
:10002000000000000000000000000000113F000878
:10003000DF15000800000000B13F0008154000086F
:10004000C51A0008C51A0008C51A0008C51A000814
:10005000C51A0008C51A0008C51A0008C51A000804
:10006000C51A0008C51A0008C51A0008C51A0008F4
:10007000E1150008C51A0008C51A0008C51A0008CD
:10008000C51A0008C51A0008C51A0008C51A0008D4
:10009000F1150008C51A0008C51A0008C51A00089D
:1000A000C51A0008C51A0008C51A0008C51A0008B4
:1000B000C51A0008C51A0008C51A0008C51A0008A4
:1000C000C51A0008C51A0008C51A0008C51A000894
:1000D000C51A000801160008C51A0008C163000807
:1000E000C51A0008C51A0008C51A0008C51A000874
:1000F000C51A0008C51A0008C51A0008C51A000864
:10010000C51A0008C51A0008C51A0008C51A000853
:10011000C51A0008C51A0008C51A000811160008FB
:10012000C51A00082116000831160008C51A000873
:10013000C51A0008C51A0008C51A0008C51A000823
:1001400041160008C51A0008C51A0008C51A00089B
:10015000C51A000851160008C51A000861160008E3
:10016000C51A0008C51A0008C51A0008C51A0008F3
:10017000C51A0008C51A0008C51A000800000000CA
:08018000C51A0008C51A0008A9
:1001C00081F0004102E000BF83F0004330B54FEA08
:1001D00041044FEA430594EA050F08BF90EA020F75
:1001E0001FBF54EA000C55EA020C7FEA645C7FEA08
:1001F000655C00F0E2804FEA5454D4EB5555B8BF2B
:100200006D420CDD2C4480EA020281EA030382EA9B
:10021000000083EA010180EA020281EA0303362D2D
:1002200088BF30BD11F0004F4FEA01314FF4801C00
:100230004CEA113102D0404261EB410113F0004F12
:100240004FEA03334CEA133302D0524263EB4303C9
:1002500094EA050F00F0A780A4F10104D5F1200E67
:100260000DDB02FA0EFC22FA05F2801841F10001C2
:1002700003FA0EF2801843FA05F359410EE0A5F196
:1002800020050EF1200E012A03FA0EFC28BF4CF0C7
:10029000020C43FA05F3C01851EBE37101F000457D
:1002A00007D54FF0000EDCF1000C7EEB00006EEB8A
:1002B0000101B1F5801F1BD3B1F5001F0CD3490814
:1002C0005FEA30004FEA3C0C04F101044FEA44526B
:1002D00012F5800F80F09A80BCF1004F08BF5FEAF2
:1002E000500C50F1000041EB045141EA050130BDD2
:1002F0005FEA4C0C404141EB0101013C28BFB1F5E4
:10030000801FE9D291F0000F04BF01460020B1FA2E
:1003100081F308BF2033A3F10B03B3F120020CDA01
:100320000C3208DD02F1140CC2F10C0201FA0CF0DF
:1003300021FA02F10CE002F11402D8BFC2F1200C44
:1003400001FA02F120FA0CFCDCBF41EA0C019040FA
:10035000E41AA2BF01EB0451294330BD6FEA040443
:100360001F3C1CDA0C340EDC04F11404C4F120022E
:1003700020FA04F001FA02F340EA030021FA04F340
:1003800045EA030130BDC4F10C04C4F1200220FA97
:1003900002F001FA04F340EA0300294630BD21FAD5
:1003A00004F0294630BD94F0000F83F4801306BF9B
:1003B00081F480110134013D4EE77FEA645C18BF8F
:1003C0007FEA655C29D094EA050F08BF90EA020F26
:1003D00005D054EA000C04BF1946104630BD91EA1E
:1003E000030F1EBF0021002030BD5FEA545C05D121
:1003F0004000494128BF41F0004130BD14F5800460
:100400003CBF01F5801130BD01F0004545F0FE41D3
:1004100041F470014FF0000030BD7FEA645C1ABF08
:10042000194610467FEA655C1CBF0B46024650EA3F
:10043000013406BF52EA033591EA030F41F400216B
:1004400030BD00BF90F0000F04BF0021704730B5F1
:100450004FF4806404F132044FF000054FF00001C6
:1004600050E700BF90F0000F04BF0021704730B587
:100470004FF4806404F1320410F0004548BF40425C
:100480004FF000013EE700BF42004FEAE2014FEAB1
:1004900031014FEA02701FBF12F07F4393F07F4F8C
:1004A00081F06051704732F07F4208BF704793F08F
:1004B0007F4F04BF41F40021704730B54FF46074A2
:1004C00001F0004521F000411CE700BF50EA0102A5
:1004D00008BF704730B54FF000050AE050EA01024E
:1004E00008BF704730B511F0004502D5404261EBBE
:1004F00041014FF4806404F132045FEA915C3FF4FF
:10050000D8AE4FF003025FEADC0C18BF03325FEA9B
:10051000DC0C18BF033202EBDC02C2F1200300FA4C
:1005200003FC20FA02F001FA03FE40EA0E0021FA71
:1005300002F11444BDE600BF4FEA4102B2F1E043CC
:1005400024BFB3F5001CDCF1FE5C0DD901F0004CBA
:100550004FEAC0024CEA5070B2F1004F40EB83000A
:1005600008BF20F00100704711F0804F21D113F136
:100570003872BCBF01F00040704741F480114FEA6F
:100580005252C2F11802C2F1200C10FA0CF320FAF8
:1005900002F018BF40F001004FEAC1234FEAD32315
:1005A00003FA0CFC40EA0C0023FA02F34FEA43037F
:1005B000CCE77FEA625307D150EA01331EBF4FF008
:1005C000FE4040F44000704701F0004040F0FE4023
:1005D00040F40000704700BF53B94AB9002908BF72
:1005E00000281CBF4FF0FF314FF0FF3000F00CB877
:1005F000ADF1080C6DE904CE06F06CF8DDF804E00E
:10060000DDE9022304B07047704700BF844641EA29
:10061000000313F003036DD1403A41D351F8043B7A
:1006200040F8043B51F8043B40F8043B51F8043BCC
:1006300040F8043B51F8043B40F8043B51F8043BBC
:1006400040F8043B51F8043B40F8043B51F8043BAC
:1006500040F8043B51F8043B40F8043B51F8043B9C
:1006600040F8043B51F8043B40F8043B51F8043B8C
:1006700040F8043B51F8043B40F8043B51F8043B7C
:1006800040F8043B51F8043B40F8043B51F8043B6C
:1006900040F8043B51F8043B40F8043B403ABDD2DB
:1006A000303211D351F8043B40F8043B51F8043B7D
:1006B00040F8043B51F8043B40F8043B51F8043B3C
:1006C00040F8043B103AEDD20C3205D351F8043B0C
:1006D00040F8043B043AF9D2043208D0D2071CBFD8
:1006E00011F8013B00F8013B01D30B880380604601
:1006F000704700BF082A13D38B078DD010F0030377
:100700008AD0C3F10403D21ADB071CBF11F8013BE6
:1007100000F8013B80D331F8023B20F8023B7BE735
:10072000043AD9D3013A11F8013B00F8013BF9D260
:100730000B7803704B7843708B78837060467047FA
:1007400001F0FF01102A2BDB10F0070F08D010F882
:10075000013B013A8B422DD010F0070F42B3F6D186
:10076000F0B441EA012141EA014122F007047FF09F
:1007700000070023F0E80256083C85EA010586EAF6
:10078000010685FA47F5A3FA87F586FA47F6A5FA32
:1007900087F68EB9EED1F0BC01F0FF0102F007023E
:1007A00032B110F8013B013A83EA010313B1F8D1E9
:1007B0000020704701387047002D06BF35460338CA
:1007C000073815F0010F07D1013015F4807F02BF03
:1007D000013015F4C03F0130F0BC0138704700BF54
:1007E0000000000000000000000000000000000009
:1007F00000000000000000000000000000000000F9
:1008000030B490F800F020F007016FF0000C10F009
:10081000070491F820F040F048804FF000046FF09A
:100820000700D1E9002391F840F000F1080082FAB6
:100830004CF2A4FA8CF283FA4CF3A2FA8CF34BBB81
:10084000D1E9022382FA4CF200F10800A4FA8CF2FA
:1008500083FA4CF3A2FA8CF3E3B9D1E9042382FAC8
:100860004CF200F10800A4FA8CF283FA4CF3A2FADD
:100870008CF37BB9D1E9062301F1200182FA4CF215
:1008800000F10800A4FA8CF283FA4CF3A2FA8CF37C
:10089000002BC6D0002A04BF04301A4612BAB2FA9E
:1008A00082F200EBD20030BC7047D1E9002304F0A3
:1008B0000305C4F100004FEAC50514F0040F91F8D8
:1008C00040F00CFA05F562EA05021CBF63EA050375
:1008D00062464FF00004AAE770B54FF0FF0C4CF4ED
:1008E000E06C1CEA11541DBF1CEA135594EA0C0F6E
:1008F00095EA0C0F00F0DEF82C4481EA030621EAA9
:100900004C5123EA4C5350EA013518BF52EA0335E3
:1009100041F4801143F4801338D0A0FB02CE4FF095
:100920000005E1FB02E506F00042E0FB03E54FF0C5
:100930000006E1FB03569CF0000F18BF4EF0010EBD
:10094000A4F1FF04B6F5007F64F5407404D25FEAB9
:100950004E0E6D4146EB060642EAC62141EA55516C
:100960004FEAC52040EA5E504FEACE2EB4F1FD0CAE
:1009700088BFBCF5E06F1ED8BEF1004F08BF5FEA2C
:10098000500E50F1000041EB045170BD06F00046DE
:1009900046EA010140EA020081EA0301B4EB5C048B
:1009A000C2BFD4EB0C0541EA045170BD41F4801183
:1009B0004FF0000E013C00F3AB8014F1360FDEBFA8
:1009C000002001F0004170BDC4F10004203C35DA84
:1009D0000C341BDC04F11404C4F1200500FA05F307
:1009E00020FA04F001FA05F240EA020001F00042A8
:1009F00021F0004110EBD37021FA04F642EB06011E
:100A00005EEA430E08BF20EAD37070BDC4F10C0447
:100A1000C4F1200500FA04F320FA05F001FA04F20B
:100A200040EA020001F0004110EBD37041F10001F7
:100A30005EEA430E08BF20EAD37070BDC4F1200502
:100A400000FA05F24EEA020E20FA04F301FA05F26A
:100A500043EA020321FA04F001F0004121FA04F212
:100A600020EA020000EBD3705EEA430E08BF20EAE2
:100A7000D37070BD94F0000F0FD101F0004640001C
:100A800041EB010111F4801F08BF013CF7D041EA9E
:100A9000060195F0000F18BF704703F000465200A2
:100AA00043EB030313F4801F08BF013DF7D043EA73
:100AB0000603704794EA0C0F0CEA135518BF95EA29
:100AC0000C0F0CD050EA410618BF52EA4306D1D1B0
:100AD00081EA030101F000414FF0000070BD50EACF
:100AE000410606BF1046194652EA430619D094EA59
:100AF0000C0F02D150EA013613D195EA0C0F05D143
:100B000052EA03361CBF104619460AD181EA030196
:100B100001F0004141F0FE4141F470014FF000004E
:100B200070BD41F0FE4141F4780170BD70B54FF0E9
:100B3000FF0C4CF4E06C1CEA11541DBF1CEA135569
:100B400094EA0C0F95EA0C0F00F0A7F8A4EB05044B
:100B500081EA030E52EA03354FEA013100F0888042
:100B60004FEA03334FF0805545EA131343EA12630B
:100B70004FEA022245EA111545EA10654FEA0026C0
:100B80000EF000419D4208BF964244F1FD0404F579
:100B9000407402D25B084FEA3202B61A65EB0305D5
:100BA0005B084FEA32024FF480104FF4002CB6EB92
:100BB000020E75EB030E22BFB61A754640EA0C0012
:100BC0005B084FEA3202B6EB020E75EB030E22BF52
:100BD000B61A754640EA5C005B084FEA3202B6EB93
:100BE000020E75EB030E22BFB61A754640EA9C0052
:100BF0005B084FEA3202B6EB020E75EB030E22BF22
:100C0000B61A754640EADC0055EA060E18D04FEADF
:100C1000051545EA16754FEA06164FEAC30343EA7F
:100C200052734FEAC2025FEA1C1CC0D111F4801F4C
:100C30000BD141EA00014FF000004FF0004CB6E745
:100C400011F4801F04BF01430020B4F1FD0C88BFE4
:100C5000BCF5E06F3FF6AFAEB5EB030C04BFB6EBEF
:100C6000020C5FEA500C50F1000041EB045170BDE2
:100C70000EF0004E4EEA113114EB5C04C2BFD4EB0F
:100C80000C0541EA045170BD41F480114FF0000E93
:100C9000013C90E645EA060E8DE60CEA135594EA0F
:100CA0000C0F08BF95EA0C0F3FF43BAF94EA0C0F12
:100CB0000AD150EA01347FF434AF95EA0C0F7FF487
:100CC00025AF104619462CE795EA0C0F06D152EADB
:100CD00003353FF4FDAE1046194622E750EA4106BF
:100CE00018BF52EA43067FF4C5AE50EA41047FF4D0
:100CF0000DAF52EA43057FF4EBAE12E74FF0FF3C35
:100D000006E000BF4FF0010C02E000BF4FF0010C05
:100D10004DF804CD4FEA410C7FEA6C5C4FEA430C7E
:100D200018BF7FEA6C5C1BD001B050EA410C0CBFCD
:100D300052EA430C91EA030F02BF90EA020F00202F
:100D4000704710F1000F91EA030F58BF994208BF96
:100D500090422CBFD8176FEAE37040F00100704753
:100D60004FEA410C7FEA6C5C02D150EA013C07D1AA
:100D70004FEA430C7FEA6C5CD6D152EA033CD3D0F5
:100D80005DF8040B704700BF8446104662468C46EF
:100D90001946634600E000BF01B5FFF7B7FF002822
:100DA00048BF10F1000F01BD4DF808EDFFF7F4FF4B
:100DB0000CBF012000205DF808FB00BF4DF808EDD6
:100DC000FFF7EAFF34BF012000205DF808FB00BFF9
:100DD0004DF808EDFFF7E0FF94BF012000205DF81B
:100DE00008FB00BF4DF808EDFFF7CEFF94BF0120D0
:100DF00000205DF808FB00BF4DF808EDFFF7C4FFC9
:100E000034BF012000205DF808FB00BF4FEA410C11
:100E10007FEA6C5C02D150EA013C0AD14FEA430CF4
:100E20007FEA6C5C02D152EA033C02D14FF0000031
:100E300070474FF0010070474FEA410212F500126F
:100E400015D211D56FF47873B3EB625212D94FEA11
:100E5000C12343F0004343EA505311F0004F23FAFB
:100E600002F018BF404270474FF00000704750EA50
:100E7000013005D111F0004008BF6FF0004070470D
:100E80004FF00000704700BF0348044B834202D07C
:100E9000034B03B1184770476C0700206C07002014
:100EA000000000000548064B1B1AD90F01EBA301F7
:100EB000491002D0034B03B1184770476C0700205C
:100EC0006C0700200000000010B5064C237843B9E1
:100ED000FFF7DAFF044B13B10448AFF3008001239E
:100EE000237010BD700700200000000050DD0008D6
:100EF00008B5054B1BB105490548AFF30080BDE8B7
:100F00000840FFF7CFBF00BF0000000074070020BB
:100F100050DD000808B50D480D4B03600323436006
:100F200000238360C3604FF4102202614FF400126B
:100F30004261037643768376C3760377437700F086
:100F4000EFFD00B908BD00F039FAFBE7B807002053
:100F50000064004008B50D480D4B03600323436057
:100F600000238360C3604FF4102202614FF400122B
:100F70004261037643768376C3760377437700F046
:100F8000CFFD00B908BD00F019FAFBE7900700207B
:100F90000068004010B58AB00023059306930793BC
:100FA0000893099303683D4A934204D03C4A934214
:100FB00034D00AB010BD3B4A136801331360012BD3
:100FC0001FD000240194384B1A6B42F008021A63B8
:100FD0001B6B03F008030193019B0323059302227B
:100FE000069208930923099305A9304801F042FCB1
:100FF00022460521142001F0C7F9142001F0D4F98C
:10100000D7E700230093284B1A6C42F000721A6451
:101010001B6C03F000730093009BD2E70023029344
:10102000214B1A6C42F080621A641B6C03F08063DF
:101030000293029B1B4A136801331360012B20D0DB
:1010400000240494184B1A6B42F002021A631B6BC3
:1010500003F002030493049B602305930223069389
:10106000032308930923099305A9114801F002FC01
:1010700022460521402001F087F9402001F094F933
:1010800097E700230393084B1A6C42F000721A642E
:101090001B6C03F000730393039BD1E700640040D3
:1010A000006800408C07002000380240000C02401D
:1010B0000004024010B582B0002400941A4B1A6B51
:1010C00042F480021A631A6B02F480020092009AC2
:1010D00001941A6B42F400121A631B6B03F40013A1
:1010E0000193019B224605210C2001F04DF90C20B3
:1010F00001F05AF922460521392001F045F939203D
:1011000001F052F9224605213A2001F03DF93A203A
:1011100001F04AF922460521452001F035F9452024
:1011200001F042F902B010BD0038024008B50120BC
:1011300002F047FEFBE70000034B0360034B0B602C
:1011400080231360704700BFE0090020E007002003
:1011500010B5C6B0594C0DF1FC0CA646BEE80F0008
:10116000ACE80F009EE807008CE8070000213FA8CC
:1011700002F0F4FD524B18600DF1E00C04F11C0E6E
:10118000BEE80F00ACE80F009EE807008CE80700FF
:10119000002138A802F0E2FD4A4B18600DF1C40CA2
:1011A00004F1380EBEE80F00ACE80F009EE807001F
:1011B0008CE80700002131A802F0D0FD424B1860F6
:1011C0000DF1A80C04F1540EBEE80F00ACE80F00BE
:1011D0009EE807008CE8070000212AA802F0BEFD67
:1011E0003A4B18600DF18C0C04F1700EBEE80F0044
:1011F000ACE80F009EE807008CE80700002123A858
:1012000002F0ACFD324B18600DF1700C04F18C0E45
:10121000BEE80F00ACE80F009EE807008CE807006E
:1012200000211CA802F09AFD2A4B18600DF1540C05
:1012300004F1A80EBEE80F00ACE80F009EE807001E
:101240008CE80700002115A802F088FD224B1860E9
:101250000DF1380C04F1C40EBEE80F00ACE80F002D
:101260009EE807008CE8070000210EA802F076FD3A
:101270001A4B18600DF11C0C04F1E00EBEE80F00D3
:10128000ACE80F009EE807008CE80700002107A8E3
:1012900002F064FD124B1860EC46FC340FCCACE855
:1012A0000F0094E807008CE807000021684602F070
:1012B00055FD0C4B186046B010BD00BF68DD00083E
:1012C0009C0B0020980B0020940B0020900B00201A
:1012D0008C0B0020880B0020840B0020800B00204A
:1012E0007C0B0020780B002030B58DB000240794D3
:1012F000089409940A940B940194284B1A6B42F0B9
:1013000002021A631A6B02F002020192019A02941D
:101310001A6B42F040021A631A6B02F0400202920A
:10132000029A03941A6B42F001021A631A6B02F0DC
:1013300001020392039A04941A6B42F008021A63A2
:101340001A6B02F008020492049A05941A6B42F098
:1013500004021A631A6B02F004020592059A0694BD
:101360001A6B42F080021A631B6B03F08003069332
:10137000069B0B4D22464FF4E051284601F070FBCE
:101380004FF4E05307930123089309940A9407A9A3
:10139000284601F06FFA0DB030BD00BF00380240A2
:1013A000001C024008B50268034B9A4200D008BDF9
:1013B00000F0A4FBFBE700BF0014004072B6FEE79C
:1013C00000B595B03022002108A805F035FC0023B7
:1013D000039304930593069307930193204A116C9A
:1013E00041F080511164126C02F080520192019A16
:1013F00002931C4B1A6842F480421A601B6803F483
:1014000080430293029B012308934FF48033099396
:1014100002230E934FF480020F9206221092A8220C
:10142000119212930423139308A801F029FB98B991
:101430000F23039302230493002305934FF4A05337
:1014400006934FF480530793052103A801F068FD2C
:1014500020B915B05DF804FBFFF7B0FFFFF7AEFF52
:10146000003802400070004008B500F02DFBFFF787
:10147000A7FFFFF739FFFFF71DFE00F099F900F015
:1014800079F9FFF747FDFFF765FD00F059F90122F3
:101490001349144802F044FC04F084FF04F08CFF6C
:1014A000114B186003F004FD04F03EF804F06CF8F2
:1014B00004F09AF804F0C8F804F034F904F078FB6A
:1014C00004F0A4FB04F0F4FB04F004FC04F032FC90
:1014D00005F052F8FFF73CFE02F03BFCFEE700BFD0
:1014E0001C0C0020C40E0020640C002000B583B04A
:1014F000002200920D4B596C41F480415964596CA3
:1015000001F48041009100990192196C41F08051E1
:1015100019641B6C03F080530193019B0F216FF042
:10152000010000F031FF03B05DF804FB0038024019
:1015300030B589B0044600230193214B1A6C42F068
:1015400020021A641B6C03F020030193019B02A983
:1015500003A801F0BBFD069BCBB901F097FD034644
:10156000184AA2FB03239B0C013B1748174A026051
:1015700040F2E732C260436000230361836083610D
:1015800001F028FF054630B1284609B030BD01F012
:101590007DFD4300E4E70C4801F0B8FD0546002856
:1015A000F2D1372000F000FF0F2C01D90125EBE725
:1015B00000222146372000F0E7FE054B1C60E3E7E0
:1015C0000038024083DE1B43680C002000140040FA
:1015D0000C000020FEE7FEE7FEE7FEE7FEE77047AF
:1015E00008B5024801F058F808BD00BF740D00208E
:1015F00008B5024800F04CFD08BD00BFB807002048
:1016000008B5024802F09CF908BD00BFC40E0020D6
:1016100008B5024801F0C2FD08BD00BF680C0020FB
:1016200008B5024801F038F808BD00BFB40C00202E
:1016300008B5024801F030F808BD00BFD40D002005
:1016400008B5024800F024FD08BD00BF9007002047
:1016500008B5024801F020F808BD00BF140D0020B5
:1016600008B5024802F06CF908BD00BF340E002036
:101670000120704708B505F0BBFB162303604FF04F
:10168000FF3008BD08B54FF0FF31FFF7F3FFFEE76D
:1016900070B50C461646002506E0AFF300802146E3
:1016A00001F8010B01350C46B542F6DB304670BD42
:1016B00070B50C461646002504E014F8010BAFF394
:1016C00000800135B542F8DB304670BD4FF0FF3089
:1016D00070474FF400534B60002070470120704763
:1016E0000020704710B503460C4A0D490D480068AC
:1016F00040B10C4800680344521A934206D8094A84
:10170000136010BD0748084C0460F2E705F070FB59
:101710000C2303604FF0FF30F3E700BF000002200E
:1017200000040000B00C002048550020034AD2F805
:10173000883043F47003C2F88830704700ED00E051
:1017400008B50A480A4B03604FF416534360002360
:101750008360C36003610C2242618361C36101F055
:10176000A0FF00B908BDFFF729FEFBE7C40E00206B
:101770000010014008B50B480B4B03600B4B436056
:1017800000238360C3604FF48062026104224261DF
:101790008361C36101F085FF00B908BDFFF70EFE4C
:1017A000FBE700BF7C0E002000480040A08601003F
:1017B00008B50A480A4B03604FF4E1334360002345
:1017C0008360C36003610C2242618361C36101F0E5
:1017D00068FF00B908BDFFF7F1FDFBE7340E0020FC
:1017E000001401402DE9F0418CB00446002307931A
:1017F000089309930A930B9303688E4A934209D086
:101800008D4A934264D08D4A934200F0AA800CB076
:10181000BDE8F08100250095894B5A6C42F010021A
:101820005A645A6C02F010020092009A01951A6BE9
:1018300042F002021A631A6B02F002020192019A4C
:1018400002951A6B42F001021A631B6B03F001034D
:101850000293029B802307934FF00208CDF820806B
:1018600003270A9707260B9607A9764801F002F886
:101870004FF400730793CDF8208009950A970B96D3
:1018800007A9714800F0F6FF7048714B03604FF0F4
:10189000006343608560C5604FF480630361456108
:1018A0008561C5614FF440330362456200F0FCFD81
:1018B00058B9664BE3639C6300220521252000F0A4
:1018C00063FD252000F070FDA1E7FFF777FDF0E74D
:1018D000002503955A4B1A6C42F480221A641A6C44
:1018E00002F480220392039A04951A6B42F00402D8
:1018F0001A631B6B03F004030493049B4FF44063CF
:1019000007930223089303230A9307230B9307A942
:10191000504800F0AFFF5048504B03604FF0006359
:1019200043608560C5604FF48063036145618561F4
:101930004FF48073C3614FF400330362456200F0DB
:10194000B3FD58B9444BE3639C6300220521272073
:1019500000F01AFD272000F027FD58E7FFF72EFDC5
:10196000F0E700250595364B5A6C42F020025A6488
:101970005A6C02F020020592059A06951A6B42F005
:1019800040021A631B6B03F040030693069B4FF45F
:10199000844307930223089303230A9308230B939A
:1019A00007A92F4800F066FF2E482F4B03604FF029
:1019B0002063436040238360C5604FF4806303610C
:1019C000456185614FF48073C3614FF480330362D6
:1019D000456200F069FD30BB224BA3639C63234842
:1019E000234B03604FF02063436000238360C36098
:1019F0004FF480620261436183614FF48072C2617F
:101A00004FF480320262436200F04EFD70B9174B12
:101A1000E3639C6300220521472000F0B5FC4720CA
:101A200000F0C2FCF3E6FFF7C9FCD5E7FFF7C6FC00
:101A3000EDE700BF001001400048004000140140E5
:101A4000003802400004024000000240D40D002093
:101A50004064024000080240740D002028600240EB
:101A600000180240140D0020A0640240B40C0020B5
:101A700028640240DFF834D0FFF758FE0C480D49C7
:101A80000D4A002302E0D458C4500433C4188C42D9
:101A9000F9D30A4A0A4C002301E013600432A2423F
:101AA000FBD305F0ABF9FFF7DFFC70470000022025
:101AB000000000206C07002034E5000870070020BB
:101AC00044550020FEE7000008B50B4B1A6842F4AD
:101AD00000721A601A6842F480621A601A6842F44E
:101AE00080721A60032000F03DFC0F20FFF720FDFC
:101AF000FFF7FCFC002008BD003C0240034A1168CF
:101B0000034B1B780B441360704700BF0C0F002081
:101B100008000020014B1868704700BF0C0F002020
:101B2000002800F0A18038B5044690F82030D3B1E9
:101B30002268136843F001031360FFF7EBFF0546CB
:101B400023685A6812F0010F10D1FFF7E3FF401B22
:101B50000A28F5D9636A43F400336362052384F8E5
:101B60002030012038BDFFF715FAE1E71A6822F0AE
:101B700002021A60FFF7CEFF054623685A6812F08A
:101B8000020F0DD0FFF7C6FF401B0A28F5D9636A84
:101B900043F400336362052384F820300120E1E739
:101BA000227E012A3DD01A6822F080021A60637EEC
:101BB000012B3BD02268136823F040031360A37EFF
:101BC000012B39D02268136823F020031360E37ED1
:101BD000012B37D02268136843F010031360237F72
:101BE000012B35D02268136823F008031360637F4C
:101BF000012B33D02268136823F004031360A36819
:101C0000E268134322691343626913436268013A2D
:101C100021681343CB6100206062012384F82030E7
:101C2000A0E71A6842F080021A60C0E722681368D1
:101C300043F040031360C2E72268136843F02003B7
:101C40001360C4E72268136823F010031360C6E72B
:101C50002268136843F008031360C8E7226813681A
:101C600043F004031360CAE70120704790F8203066
:101C7000013BDBB2012B05D9436A43F48023436265
:101C80000120704730B5464BD3F8002242F00102E4
:101C9000C3F80022D3F8002222F47C52C3F80022B9
:101CA000D3F80022486A42EA0022C3F800224A69B7
:101CB00002F01F02012000FA02F2D3F81C026FEAC0
:101CC000020C20EA0200C3F81C02CB69C3B9344BF2
:101CD000D3F80C020CEA0000C3F80C028C884869A7
:101CE000CD6844EA0544483043F830408C680888A1
:101CF00040EA04404C6904F1480E03EBCE035860FF
:101D0000CB69012B1ED08B69002B33D12448D0F82E
:101D100004320CEA0303C0F804320B698BBB204881
:101D2000D0F814320CEA0303C0F814320B6A012B0A
:101D30002ED01B4AD2F8003223F00103C2F8003241
:101D4000002030BD164BD3F80C021043C3F80C0230
:101D50008C8848690D6844EA0544483043F83040AF
:101D600088894C698D6840EA0540483403EBC40318
:101D70005860C8E70A48D0F804321343C0F8043268
:101D8000CBE70748D0F814321343C0F81432CDE73C
:101D90000349D1F81C321343C1F81C32C9E700BF14
:101DA0000064004070B5044690F82050EDB2012D5B
:101DB00006D0436A43F4002343620125284670BDE0
:101DC000022380F820300268136823F001031360B7
:101DD000FFF7A0FE064623685B6813F0010F0CD0E6
:101DE000FFF798FE831B0A2BF5D9636A43F400338F
:101DF0006362052384F82030E0E700256562DDE7B3
:101E000030B590F820C00468A4680CF1FF3C5FFA7C
:101E10008CFCBCF1010F62D814F0E05F59D0C4F320
:101E2000016C012404FA0CF41C608B68002B3DD17A
:101E30000D68CB68046843EA45550CF118031B0193
:101E4000E55003680C690CF1180E03EB0E135C608F
:101E50000B7D012B35D0D17993791B0443EA0163C3
:101E6000517943EA012314790168234301EB0C11F2
:101E7000C1F88C31D17893781B0443EA016351781F
:101E800043EA0123117802680B4302EB0C12C2F8FB
:101E9000883102680CF1180C4FEA0C1C52F80C3017
:101EA00043F0010342F80C3000201DE04C6843EA87
:101EB000C403CC6823430CF11804240105682B519A
:101EC000BFE7036803EB0E13596841F48071596052
:101ED000C1E7436A43F400134362012004E0436A0C
:101EE00043F480234362012030BD90F820C00CF100
:101EF000FF3C5FFA8CFCBCF1010F00F2A58030B40E
:101F000051B90468E46814F0030F10D1436A43F434
:101F10000013436201207EE00468246914F0030F7B
:101F200005D1436A43F400134362012073E005685E
:101F300001F11B0424012C5904F004049460002CCA
:101F40006BD1056801F11B0424012C59640D146048
:101F5000046801F11B0C4FEA0C1C54F80C4004F00F
:101F60000204D4600468A444DCF8045015F0080F9F
:101F70005BD008241461046801F11B0C04EB0C1401
:101F80006468C4F307249461046804EB0C14646867
:101F9000240C5461026802EB0112D2F8B8211A70C5
:101FA000026802EB0112D2F8B821C2F307225A707C
:101FB000026802EB0112D2F8B821C2F307429A700C
:101FC000026802EB0112D2F8B821120EDA70026830
:101FD00002EB0112D2F8BC211A71026802EB011265
:101FE000D2F8BC21C2F307225A71026802EB011237
:101FF000D2F8BC21C2F307429A71026802EB0112C7
:10200000D2F8BC21120EDA71C1B90268D36843F06C
:102010002003D360002030BC7047056801F11B0429
:1020200024012C59E408546092E701F11B0504EBEC
:102030000514646804F00F0414619CE702681369D6
:1020400043F020031361E5E7436A43F480234362CE
:102050000120704790F82030013BDBB2012B05D9FD
:10206000436A43F480234362012070470268536946
:102070000B435361002070477047704770477047AB
:102080007047704770477047704770477047704798
:102090002DE9F84F054603685C69D3F804809F6812
:1020A000D3F80CA0D3F81090D3F818B014F00106B0
:1020B0003BD017F0010616D001229A6017F0020FEC
:1020C00008D117F0040F0CD117F0080606D04FF412
:1020D000805608E0FFF7D0FF002604E0FFF7CFFFAF
:1020E00001E04FF4006617F4807F0DD02B684FF4A9
:1020F00080729A6017F4007F40F0968017F4806F2A
:1021000000F0968046F4005617F4803F0DD02B68FF
:102110004FF480329A6017F4003F40F0938017F438
:10212000802F00F0938046F4004614F0080F07D08B
:102130001AF0100F04D046F400762B681022DA60F3
:1021400014F0040F03D01AF0080F40F0898014F047
:10215000020F05D02B68DB6813F0030F40F0878077
:1021600014F0400F07D019F0100F04D046F4806629
:102170002B6810221A6114F0200F02D019F0080FFA
:1021800079D114F0100F04D02B681B6913F0030FE2
:1021900078D114F4003F02D018F0100F76D114F467
:1021A000803F02D018F0080F77D114F4004F37D0D9
:1021B00018F0040F31D014F4807F04D01BF0010F0D
:1021C00001D046F0010614F4007F04D01BF0020F8A
:1021D00001D046F0020614F4806F04D01BF0040F07
:1021E00001D046F0040614F4006F16D01BF0700BFB
:1021F00013D0BBF1400F66D056D8BBF1200F5CD096
:10220000BBF1300F5CD0BBF1100F01D146F00806D6
:102210002A68936923F0700393612B6804225A6043
:10222000002E56D1BDE8F88F2846FFF726FF6BE752
:1022300017F4006F02D046F4804665E72846FFF7A2
:102240001FFF61E72846FFF719FF6EE717F4002F1D
:1022500002D046F4803668E72846FFF712FF64E7AD
:102260002B680822DA602846FFF70CFF6FE7284644
:1022700002F0A6FC74E72B6808221A612846FFF7D3
:1022800003FF7EE72846FFF7FEFE82E72B68102259
:102290005A602846FFF7F9FE81E72B6808225A604A
:1022A0002846FFF7F3FE80E7BBF1500F0ED0BBF1DD
:1022B000600FADD146F48076AAE746F01006A7E796
:1022C00046F02006A4E746F04006A1E746F0800667
:1022D0009EE76B6A33436B622846FFF7D8FEA1E79F
:1022E000002807DB00F01F02400901239340024A47
:1022F00042F82030704700BF00E100E0002808DB12
:102300000901C9B200F1604000F5614080F8001396
:10231000704700F00F000901C9B2014B1954704712
:1023200014ED00E000B500F00700C0F1070CBCF1AF
:10233000040F28BF4FF0040C031D062B0FD9C31E3A
:102340004FF0FF3E0EFA0CF021EA000199400EFA20
:1023500003FE22EA0E0241EA02005DF804FB0023BC
:10236000EEE70000074AD36823F4E0631B041B0C6C
:10237000000200F4E060034343F0BF6343F4003322
:10238000D360704700ED00E010B50446054BD868F7
:10239000C0F30220FFF7C6FF01462046FFF7AEFF5D
:1023A00010BD00BF00ED00E008B5FFF799FF08BDC4
:1023B00030B405682C6824F480242C6004686360C1
:1023C0008368402B05D0036899600368DA6030BCED
:1023D000704703689A600368D960F8E710B403682F
:1023E000D9B210390A4AA2FB01421209094CA25C77
:1023F000C2655F2907D96FF3090304338365806DD4
:102400005DF8044B70476FF309038365F7E700BF7E
:10241000ABAAAAAAF8E00008836A826992B9012BE4
:102420000AD0022B02D00BB100207047C36A13F010
:10243000807F28D100207047C36AB3F1C07F24D0C9
:1024400000207047B2F5005F09D0022B25D9032B7D
:1024500025D1C36A13F0807F23D100207047032B5E
:1024600003D8DFE803F01404140A00207047C36A9D
:1024700013F0807F0DD100207047C36AB3F1C07F95
:1024800009D00020704701207047012070470120CB
:1024900070470120704701207047012070470020DD
:1024A000704701207047000070B50446FFF732FB0B
:1024B000002C5BD00546022384F83530002384F8D5
:1024C00034302268136823F00103136023681A680C
:1024D00012F0010F0AD0FFF71DFB431B052BF5D9A6
:1024E00020236365032084F8350070BD1A682049F5
:1024F00011406268A0680243E06802432069024319
:1025000060690243A0690243E0690243206A024312
:102510000A43616A04291ED01A602668756925F08D
:102520000705636A1D43042B07D1A36A1D43E36AB1
:102530001BB12046FFF770FF90B975612046FFF789
:102540004DFFE26D3F2393408360002060650123CF
:1025500084F83530C9E7E16A206B01430A43DBE7C1
:1025600040236365012084F83500BEE70120BCE705
:102570003F8010F038B50446856D90F8340001288E
:102580002BD0012084F8340094F83500C0B2012823
:1025900004D0002384F83430022038BD022084F8AF
:1025A0003500002060652046FFF702FFE26D3F2303
:1025B0009340AB602268136843F016031360236CEA
:1025C00023B12268136843F008031360226813687C
:1025D00043F0010313600020DFE70220DDE770B560
:1025E0000446866DFFF796FA94F83530DBB2022B7D
:1025F00006D080236365002384F83430012070BD49
:1026000005462268136823F0160313602268536995
:1026100023F080035361236CE3B12268136823F035
:10262000080313602268136823F001031360236812
:102630001B6813F0010F11D0FFF76CFA431B052B39
:10264000F5D920236365032084F83500002384F83E
:102650003430D4E7A36C002BDFD1E3E7E26D3F23F6
:102660009340B360012384F83530002084F83400AF
:10267000C5E790F83530DBB2022B03D080234365E9
:1026800001207047052380F835300268136823F075
:102690000103136000207047F0B583B004460023A7
:1026A0000193724B1D68724BA3FB0535AD0A876D14
:1026B0003E68C26D08239340334210D003681A6805
:1026C00012F0040F0BD01A6822F004021A60C26DD7
:1026D00008239340BB60436D43F001034365E26D03
:1026E00001239340334209D02268526912F0800FCF
:1026F00004D0BB60636D43F002036365E26D0423A5
:102700009340334209D02268126812F0020F04D0BD
:10271000BB60636D43F004036365E26D1023934077
:10272000334224D02268126812F0080F1FD0BB6019
:1027300023681A6812F4802F0DD01B6813F4002F41
:1027400004D1236C9BB12046984710E0A36C73B171
:10275000204698470BE01A6812F4807F03D11A686C
:1027600022F008021A60236C0BB120469847E26DF4
:1027700020239340334255D02268126812F0100F84
:1027800050D0BB6094F83530DBB2052B0ED02368F7
:102790001A6812F4802F33D01B6813F4002F2AD14B
:1027A000636C002B3ED0204698473BE022681368BC
:1027B00023F0160313602268536923F080035361EA
:1027C000236CA3B12268136823F008031360E26D41
:1027D0003F239340BB60012384F83530002384F805
:1027E0003430236D002B3FD0204698473CE0A36C4B
:1027F000002BE7D1EBE7E36BA3B12046984711E04C
:102800001A6812F4807F09D11A6822F010021A6047
:10281000012384F83530002384F83430E36B0BB1A6
:1028200020469847636DFBB1636D13F0010F17D01D
:10283000052384F835302268136823F00103136000
:10284000019B01330193AB4204D823681B6813F04A
:10285000010FF5D1012384F83530002384F834309A
:10286000E36C0BB12046984703B0F0BD0400002094
:10287000B5814E1B00230F2B00F2E98070B582B0AA
:1028800065E085684FEA430E032404FA0EF425EA56
:102890000405CC6804FA0EF42C438460446824EAEE
:1028A00002044A68C2F300129A40224342605CE08C
:1028B000DC08083450F8242003F00705AD004FF081
:1028C0000F0E0EFA05FE22EA0E0E0A69AA4042EA2F
:1028D0000E0240F824205CE0072200E0002202FA09
:1028E0000EF22A4302345A4D45F82420594A94687E
:1028F0006FEA0C0224EA0C054E6816F4801F01D022
:102900004CEA0405534CA560E46802EA04054E68ED
:1029100016F4001F01D04CEA04054E4CE5606468D3
:1029200002EA04054E6816F4003F01D04CEA0405A3
:10293000484C6560246822404D6815F4803F01D002
:102940004CEA0402434C226001330F2B7DD8012254
:102950009A400C6804EA020C32EA0404F4D14C6890
:1029600004F00304013C012C8BD94A6802F00302F5
:10297000032A09D0C4685D000322AA4024EA0204A5
:102980008A68AA402243C2604A6802F00302022A0F
:102990008ED004684FEA430E032202FA0EF224EAB4
:1029A00002044A6802F0030202FA0EF222430260B5
:1029B0004A6812F4403FC7D000220192264A546C64
:1029C00044F480445464526C02F480420192019AAF
:1029D0009C08A51C1E4A52F8255003F0030E4FEA2E
:1029E0008E0E0F2202FA0EF225EA02051B4A9042D1
:1029F0003FF474AF02F5806290421AD002F5806213
:102A0000904218D002F58062904216D002F58062A2
:102A1000904214D002F58062904212D002F580629A
:102A2000904210D002F5806290423FF455AF0822E8
:102A300055E7012253E7022251E703224FE7042220
:102A40004DE705224BE7062249E702B070BD70470B
:102A500000380140003C01400038024000000240C4
:102A60000AB181617047090481617047436901EAD5
:102A7000030221EA030141EA02418161704700003B
:102A8000002800F0E08170B582B00446036813F0BE
:102A9000010F3BD09F4B9B6803F00C03042B2CD001
:102AA0009C4B9B6803F00C03082B21D06368B3F5A3
:102AB000803F4FD0B3F5A02F52D0964B1A6822F426
:102AC00080321A601A6822F480221A606368002B30
:102AD00050D0FFF71FF805468E4B1B6813F4003FDC
:102AE00014D1FFF717F8401B6428F5D90320B1E192
:102AF000884B5B6813F4800FD8D0864B1B6813F4A7
:102B0000003F03D06368002B00F09F81236813F01F
:102B1000020F54D07F4B9B6813F00C0F3ED07D4BBF
:102B20009B6803F00C03082B33D0E368002B68D0BC
:102B3000794B01221A60FEF7EDFF0546754B1B68C5
:102B400013F0020F54D1FEF7E5FF401B0228F5D920
:102B500003207FE16F4A136843F480331360B5E7C5
:102B60006C4B1A6842F480221A601A6842F4803270
:102B70001A60ABE7FEF7CEFF0546664B1B6813F401
:102B8000003FC3D0FEF7C6FF401B6428F5D90320E1
:102B900060E1604B5B6813F4800FC6D15D4B1B682E
:102BA00013F0020F03D0E368012B40F05081594A23
:102BB000136823F0F803216943EAC1031360236813
:102BC00013F0080F42D063696BB3534B0122C3F873
:102BD000802EFEF79FFF05464E4B5B6F13F0020FF2
:102BE00034D1FEF797FF401B0228F5D9032031E1CD
:102BF000484A136823F0F803216943EAC1031360CC
:102C0000DDE7454B00221A60FEF784FF0546414B85
:102C10001B6813F0020FD2D0FEF77CFF401B022886
:102C2000F5D9032016E13C4B0022C3F8802EFEF7B5
:102C300071FF0546374B5B6F13F0020F06D0FEF7AE
:102C400069FF401B0228F5D9032003E1236813F034
:102C5000040F77D02F4B1B6C13F0805F33D1002310
:102C600001932C4B1A6C42F080521A641B6C03F0D7
:102C700080530193019B0125284B1B6813F4807F2F
:102C800023D0A368012B34D0052B38D0214B1A6FE9
:102C900022F001021A671A6F22F004021A67A36871
:102CA000002B3DD0FEF736FF06461A4B1B6F13F084
:102CB000020F46D1FEF72EFF801B41F28833984267
:102CC000F3D90320C6E00025D6E7144A136843F47D
:102CD00080731360FEF71EFF0646104B1B6813F44B
:102CE000807FCED1FEF716FF801B0228F5D9032086
:102CF000B0E0084A136F43F001031367CFE7054BB9
:102D00001A6F42F004021A671A6F42F001021A6742
:102D1000C5E700BF00380240000047420070004095
:102D2000FEF7F8FE0646524B1B6F13F0020F08D059
:102D3000FEF7F0FE801B41F288339842F3D903205E
:102D400088E0EDB9A369002B00F08380484A9268BF
:102D500002F00C02082A51D0022B17D0454B00225A
:102D60001A66FEF7D7FE0446414B1B6813F0007F3E
:102D700042D0FEF7CFFE001B0228F5D9032069E000
:102D80003B4A136C23F080531364DBE7394B00227A
:102D90001A66FEF7BFFE0546354B1B6813F0007F31
:102DA00006D0FEF7B7FE401B0228F5D9032051E0FC
:102DB000E369226A1343626A43EA8213A26A5208F1
:102DC000013A43EA0243E26A43EA0263284A536053
:102DD000284B01221A66FEF79DFE0446244B1B6811
:102DE00013F0007F06D1FEF795FE001B0228F5D9EF
:102DF00003202FE000202DE000202BE0012B2BD022
:102E00001B4B5B6803F48001E269914226D103F019
:102E10003F02216A8A4223D1616A47F6C0721A4092
:102E2000B2EB811F1ED103F44031A26A5208013A6D
:102E3000B1EB024F18D103F07063E26AB3EB026F9B
:102E400014D1002006E001207047012002E001209B
:102E500000E0002002B070BD0120FBE70120F9E78F
:102E60000120F7E70120F5E70120F3E70120F1E772
:102E7000003802400000474208B5264B9B6803F02B
:102E80000C03042B41D0082B41D1224B5A6802F08D
:102E90003F025B6813F4800F12D01E4B5968C1F3D8
:102EA00088111D480023A1FB0001FDF795FB194B7C
:102EB0005B68C3F3014301335B00B0FBF3F008BD73
:102EC000144B5868C0F388104FEA401CBCEB000C50
:102ED0006EEB0E0E4FEA8E1343EA9C634FEA8C11A1
:102EE000B1EB0C0163EB0E03DB0043EA5173C90045
:102EF00011EB000C43F10003990200234FEA8C20F0
:102F000041EA9C51FDF768FBD1E70348D7E7034846
:102F1000D5E700BF00380240001BB7000024F400D2
:102F2000002800F09B8070B50D4604464F4B1B688F
:102F300003F007038B4208D2CBB24C4A13701368DC
:102F400003F007038B4240F08B80236813F0020FDD
:102F500017D013F0040F04D0454A936843F4E053AC
:102F60009360236813F0080F04D0414A936843F438
:102F7000604393603E4A936823F0F003A1680B43DB
:102F80009360236813F0010F32D06368012B21D0C6
:102F90009A1E012A25D9364A126812F0020F61D012
:102FA00033498A6822F0030213438B60FEF7B2FDB7
:102FB00006462F4B9B6803F00C036268B3EB820F4D
:102FC00016D0FEF7A7FD801B41F288339842F0D956
:102FD000032042E0264A126812F4003FE0D10120AB
:102FE0003BE0234A126812F0007FD9D1012034E07F
:102FF0001E4B1B6803F00703AB4207D9EAB21B4B19
:103000001A701B6803F00703AB422DD1236813F03D
:10301000040F06D0164A936823F4E053E1680B438B
:103020009360236813F0080F07D0114A936823F4C4
:103030006043216943EAC1039360FFF71DFF0C4B16
:103040009B68C3F303130B4AD35CD8400A4B186048
:103050000A4B1868FEF76CFA002070BD012070471B
:103060000120FAE70120F8E70120F6E7003C0240E2
:1030700000380240E8E00008040000200C000020B6
:10308000014B1868704700BF0400002008B5FFF727
:10309000F7FF044B9B68C3F38223034AD35CD840F9
:1030A00008BD00BF00380240E0E0000808B5FFF7A7
:1030B000E7FF044B9B68C3F34233034AD35CD84019
:1030C00008BD00BF00380240E0E000080F230360A5
:1030D0000B4B9A6802F0030242609A6802F0F00219
:1030E00082609A6802F4E052C2609B68DB0803F4D5
:1030F000E0530361034B1B6803F007030B60704749
:1031000000380240003C02407047000090F83D301B
:10311000DBB2012B37D1022380F83D300268D3683F
:1031200043F00103D3600368194A934220D0B3F1FE
:10313000804F1DD0A2F57C42934219D002F58062E7
:10314000934215D002F58062934211D002F5784285
:1031500093420DD002F57052934209D0A2F59432F9
:10316000934205D01A6842F001021A6000207047AD
:103170009A6802F00702062A07D01A6842F0010294
:103180001A6000207047012070470020704700BF80
:1031900000000140704770477047704770B50446A3
:1031A0000368DE681D6915F0020F10D016F0020FDB
:1031B0000DD06FF002021A610123037703689B6947
:1031C00013F0030F5ED0FFF7E6FF0023237715F01F
:1031D000040F12D016F0040F0FD023686FF0040212
:1031E0001A610223237723689B6913F4407F4FD031
:1031F0002046FFF7D0FF0023237715F0080F12D0E9
:1032000016F0080F0FD023686FF008021A6104232C
:1032100023772368DB6913F0030F40D02046FFF7C4
:10322000BAFF0023237715F0100F12D016F0100FFD
:103230000FD023686FF010021A61082323772368E8
:10324000DB6913F4407F31D02046FFF7A4FF002351
:10325000237715F0010F02D016F0010F2DD115F0D4
:10326000800F02D016F0800F2FD115F0400F02D042
:1032700016F0400F31D115F0200F02D016F0200FBC
:1032800033D170BDFFF786FF2046FFF785FF9CE72F
:103290002046FFF77FFF2046FFF77EFFABE7204683
:1032A000FFF778FF2046FFF777FFBAE72046FFF7E2
:1032B00071FF2046FFF770FFC9E723686FF0010236
:1032C0001A612046FEF76EF8C9E723686FF08002A6
:1032D0001A61204600F0ABF8C7E723686FF04002A0
:1032E0001A612046FFF759FFC5E723686FF02002F7
:1032F0001A61204600F09AF8C3E700000368344AD8
:10330000904212D0B0F1804F0FD0A2F57C42904293
:103310000BD002F58062904207D002F580629042A5
:1033200003D002F57842904203D123F070034A683B
:103330001343274A90422AD0B0F1804F27D0A2F5FC
:103340007C42904223D002F5806290421FD002F569
:10335000806290421BD002F57842904217D002F56D
:103360007052904213D002F5806290420FD002F565
:10337000806290420BD0A2F59832904207D002F5BD
:103380008062904203D002F58062904203D123F420
:103390004073CA68134323F080034A6913430360F0
:1033A0008B68C3620B688362094B984203D003F5B4
:1033B0008063984201D10B69036301234361036970
:1033C00013F0010F03D0036923F001030361704779
:1033D0000000014040B310B5044690F83D30F3B111
:1033E000022384F83D30214651F8040BFFF786FF95
:1033F000012384F8463084F83E3084F83F3084F866
:10340000403084F8413084F8423084F8433084F806
:10341000443084F8453084F83D30002010BD80F8F9
:103420003C30FFF771FEDBE70120704770477047C3
:10343000026802F10C0353E8003F23F0C0030C3292
:1034400042E800310029F3D1202380F84130704751
:10345000026802F10C0353E8003F23F490730C322E
:1034600042E800310029F3D1026802F1140353E865
:10347000003F23F00103143242E800310029F3D168
:10348000036B012B05D0202380F842300023036317
:103490007047026802F10C0353E8003F23F0100369
:1034A0000C3242E800310029F3D1ECE790F84130CA
:1034B000DBB2212B01D0022070478368B3F5805F17
:1034C00017D0036A5A1C02621A7803685A60C38CC8
:1034D0009BB2013B9BB2C3844BB90268D36823F013
:1034E0008003D3600268D36843F04003D3600020B8
:1034F00070470369002BE4D1036A1B880268C3F399
:1035000008035360036A02330362E0E710B5044620
:103510000268136923F44053C1680B431361836845
:1035200002691A4343691A43C3691A430168CB68A5
:1035300023F4164323F00C031343CB600268536952
:1035400023F4407381690B4353610368314A93420A
:1035500006D002F58062934202D0FFF797FD01E0AA
:10356000FFF7A4FDE369B3F5004F29D0002103184C
:1035700049411B1841F10001C90041EA5371DB00C8
:10358000181863684FEA83024FEA937341F1000110
:10359000FDF722F8204AA2FB00314909642303FB0E
:1035A00011031B013233A2FB03235B0903F0F0027A
:1035B00002EB011203F00F03216813448B6010BD6E
:1035C0000023021843EB0301121841F10001C90066
:1035D00041EA5271D200101841F10001626892185C
:1035E0005B41FCF7F9FF0C4AA2FB00314909642357
:1035F00003FB1103DB003233A2FB03235B095A00F8
:1036000002F4F87202EB011203F00703216813447D
:103610008B60D4E7001001401F85EB512DE9F0438A
:1036200083B005460E4617469946DDF828802B687C
:103630001C6836EA04040CBF01240024BC4228D1D3
:10364000B8F1FF3FF3D0FEF765FAA0EB0900404563
:1036500023D8B8F1000F22D02B68DA6812F0040FDB
:10366000E5D0802EE3D0402EE1D01A6812F0080F8A
:10367000DDD0002401941A6801925B680193019BDC
:103680002846FFF7E5FE08236B6485F840400120DB
:1036900000E0002003B0BDE8F0830320FAE7032038
:1036A000F8E760B310B5044690F8413013B3242313
:1036B00084F841302268D36823F40053D360204655
:1036C000FFF724FF2268136923F4904313612268F3
:1036D000536923F02A0353612268D36843F40053EB
:1036E000D36000206064202384F8413084F84230A5
:1036F000606310BD80F84030FEF774F8D7E7012012
:1037000070472DE9F04182B01E4690F84130DBB29F
:10371000202B56D104460D469046002955D00AB9B3
:1037200001204FE000234364212380F84130FEF75D
:10373000F1F90746A4F82480A4F82680A368B3F51D
:10374000805F02D04FF0000814E023692BB34FF0E4
:1037500000080FE0202384F84130032032E038F8DD
:10376000023B2268C3F308035360E28C92B2013A31
:1037700092B2E284E38C9BB293B100963B46002266
:1037800080212046FFF74AFF0028E3D1002DE6D034
:1037900015F8012B23685A60E7E7A8460025E9E7FA
:1037A00000963B46002240212046FFF737FF18B91C
:1037B000202384F8413005E0202384F841300320A1
:1037C00000E0022002B0BDE8F0810120FAE7704776
:1037D00008B50168CA6822F04002CA60202280F859
:1037E0004120FFF7F4FF002008BD7047704710B577
:1037F000846B23685A6994F84130DBB2212B10D0D6
:1038000023685A6902F0400294F84230DBB2222B5E
:1038100011D0636C43F0100363642046FFF7E6FFAA
:1038200010BD02F08002002AEAD00023E384204683
:10383000FFF7FEFDE4E7002AEBD00023E3852046F6
:10384000FFF706FEE5E708B5806B0023C385C38458
:10385000FFF7CCFF08BD704790F84230DBB2222B57
:1038600069D18368B3F5805F4FD0826AB3F5805F1A
:1038700004D0002B56D10369002B53D103685B6839
:103880001370836A01338362C38D9BB2013B9BB289
:10389000C385002B51D100B583B00268D36823F0F3
:1038A0002003D3600268D36823F48073D360026876
:1038B000536923F001035361202380F84230002331
:1038C0004363036B012B33D100230363026802F1CE
:1038D0000C0353E8003F23F010030C3242E80031A0
:1038E0000029F3D103681A6812F0100F06D00022E5
:1038F00001921A6801925B680193019B818DFFF729
:10390000AAFF002003B05DF804FB0269002AACD1D5
:10391000826A03685B68C3F308031380836A023317
:103920008362B1E703685B6803F07F031370A8E765
:1039300002F05EFEE5E702207047002070470000BD
:1039400010B582B0044602681368D068516913F05C
:103950000F0F09D113F0200F0CD010F0200F09D059
:103960002046FFF779FF16E011F0010115D110F4A0
:10397000907F12D1216B012979D013F0800F03D0F1
:1039800010F0800F40F0148113F0400F03D010F0BE
:10399000400F40F0118102B010BD13F0010F06D0AE
:1039A00010F4807F03D0626C42F00102626413F075
:1039B000040F04D019B1626C42F00202626413F089
:1039C000020F04D019B1626C42F00402626413F079
:1039D000080F07D010F0200F00D119B1626C42F02F
:1039E00008026264626C002AD5D013F0200F02D066
:1039F00010F0200F29D123685B6903F04003626C4B
:103A000012F0080F00D163B32046FFF721FD2368B1
:103A10005B6913F0400F20D0226802F1140353E8D1
:103A2000003F23F04003143242E800310029F3D173
:103A3000E36B73B1624A1A65E06BFEF71AFE002869
:103A4000A9D0E06B036D9847A5E72046FFF704FF78
:103A5000D1E72046FFF7CAFE9DE72046FFF7C6FEE6
:103A600099E72046FFF7C2FE0023636493E713F053
:103A7000100F82D010F0100F3FF47FAF002301939E
:103A80001368019353680193019B536913F0400F2E
:103A900052D0E26B13685B689BB2002B3FF47BAFA4
:103AA000A18D99427FF677AFE385D369B3F5807F27
:103AB00037D0226802F10C0353E8003F23F48073EF
:103AC0000C3242E800310029F3D1226802F11403DC
:103AD00053E8003F23F00103143242E8003100298B
:103AE000F3D1226802F1140353E8003F23F04003AE
:103AF000143242E800310029F3D1202384F8423007
:103B000000232363226802F10C0353E8003F23F0F3
:103B100010030C3242E800310029F3D1E06BFEF7CC
:103B20005EFD02236363A18DE38D9BB2C91A89B246
:103B30002046FFF790FE2EE7A18DE38D9BB2C91AB8
:103B400089B2E38D9BB2002B3FF425AF00293FF4EF
:103B500022AF226802F10C0353E8003F23F4907374
:103B60000C3242E800300028F3D1226802F114033D
:103B700053E8003F23F00103143242E800300028EC
:103B8000F3D1202384F8423000232363226802F11A
:103B90000C0353E8003F23F010030C3242E80030DE
:103BA0000028F3D1022363632046FFF754FEF2E6B8
:103BB0002046FFF77BFCEEE62046FFF709FEEAE62B
:103BC0004738000808B5806B01234363036B012B62
:103BD00002D0FFF70AFE08BD818D4908FFF73BFEC2
:103BE000F9E708B50346806B1B681B6813F4807FF8
:103BF0002BD10023C385026802F10C0353E8003F78
:103C000023F480730C3242E800310029F3D10268BA
:103C100002F1140353E8003F23F00103143242E899
:103C200000310029F3D1026802F1140353E8003F88
:103C300023F04003143242E800310029F3D120235D
:103C400080F84230036B012B07D000234363036BE2
:103C5000012B0FD002F0CCFC08BD026802F10C036E
:103C600053E8003F23F010030C3242E800310029F2
:103C7000F3D1EAE7818DFFF7EEFDEDE730B583B0D4
:103C8000044613468162828500254564222280F81D
:103C90004220C26B1F48D063E26B1F481064E26B86
:103CA0001E48D064E26B156520680A46011DE06B72
:103CB000FEF760FC019523681A6801925B68019326
:103CC000019B23695BB1226802F10C0353E8003FBA
:103CD00043F480730C3242E800310029F3D12268AA
:103CE00002F1140353E8003F43F00103143242E8A9
:103CF00000310029F3D1226802F1140353E8003F98
:103D000043F04003143242E800310029F3D100208F
:103D100003B030BDE33B0008C53B0008EF370008A7
:103D200008B590F84230DBB2202B08D149B10AB96E
:103D3000012008BD00230363FFF7A0FFF9E702207D
:103D4000F7E70120F5E7842801D003307047002011
:103D5000704708B500F06AFD002008BD2DE9F0436A
:103D600087B00E464469C4B18569B5B14768D0F8DB
:103D70000080D0F81090B0F90800FFF7E4FF02953A
:103D80000194009033464A464146384600F0DEFC36
:103D90000590059807B0BDE8F08344680568076999
:103DA000B0F90800FFF7CFFF05AB01930090334651
:103DB000BAB22946204600F006FD0128E9D00020CD
:103DC000E8E708B500B9012000F082FE002008BD38
:103DD00000F1080343604FF0FF328260C36003616B
:103DE00000230360704700230361704743684B6002
:103DF0009A688A60516099600861036801330360C2
:103E0000704730B40D68B5F1FF3F11D000F10803E1
:103E10001C465B681A68AA42FAD963684B609960CD
:103E20008C606160086103680133036030BC7047D7
:103E30000469F2E70369416882688A6041685160F9
:103E40005A68824206D0002202611A68013A1A605A
:103E50001868704782685A60F5E7000082B0002356
:103E600001930D4B1B68B3F1FF3F08D04FF0500397
:103E700083F31188BFF36F8FBFF34F8FFEE74FF0CF
:103E8000500383F31188BFF36F8FBFF34F8F019BF4
:103E9000002BFCD002B070471000002008480068DA
:103EA000006880F308884FF0000080F3148862B641
:103EB00061B6BFF34F8FBFF36F8F00DF00BF00000D
:103EC00008ED00E0DFF80C00016841F470010160CA
:103ED0007047000088ED00E04FF0807340F8043C2C
:103EE00021F0010140F8081C054B40F80C3C40F85B
:103EF000202C6FF0020340F8243C4438704700BF88
:103F00005D3E00080000000000000000000000000E
:103F1000074B19680868B0E8F04F80F30988BFF3D1
:103F20006F8F4FF0000080F311887047AFF300806F
:103F3000604C00204FF0500383F31188BFF36F8F64
:103F4000BFF34F8F0B4A136801331360012B00D06E
:103F500070474FF0E023D3F8043D13F0FF0FF7D084
:103F60004FF0500383F31188BFF36F8FBFF34F8F70
:103F7000FEE700BF10000020094B1B6843B94FF05B
:103F8000500383F31188BFF36F8FBFF34F8FFEE7AA
:103F9000013B034A13600BB983F31188704700BFDC
:103FA00010000020000000000000000000000000E1
:103FB000EFF30980BFF36F8F154B1A681EF0100FD7
:103FC00008BF20ED108A20E9F04F10602DE90900AC
:103FD0004FF0500080F31188BFF34F8FBFF36F8F06
:103FE00000F09CFD4FF0000080F3118809BC1968B7
:103FF0000868B0E8F04F1EF0100F08BFB0EC108A50
:1040000080F30988BFF36F8F704700BFAFF3008064
:10401000604C002008B54FF0500383F31188BFF3C4
:104020006F8FBFF34F8F00F04BFC28B14FF0E023B0
:104030004FF08052C3F8042D002383F3118808BD8C
:104040004FF0E022002313619361054B1B68054983
:10405000A1FB03139B09013B5361072313617047C5
:1040600004000020D34D62104FF0E023D3F8002D60
:104070003D4B9A421CD04FF0E023D3F8002D3B4B30
:104080009A421ED030B583B0394B1A78D2B2019221
:10409000FF221A701B78DBB28DF803309DF80330D5
:1040A00003F05003334A1370334B07221A601BE0AE
:1040B0004FF0500383F31188BFF36F8FBFF34F8F1F
:1040C000FEE74FF0500383F31188BFF36F8FBFF308
:1040D0004F8FFEE7284A1368013B13609DF80330B9
:1040E0005B00DBB28DF803309DF8033013F0800FD6
:1040F000F0D1214B1B68032B08D04FF0500383F302
:104100001188BFF36F8FBFF34F8FFEE71B021A4A70
:10411000136003F4E0631360019BDBB2144A137075
:104120004FF0E024D4F8203D43F47003C4F8203D60
:10413000D4F8203D43F07043C4F8203DFFF780FFE2
:1041400000250E4B1D60FFF7BDFED4F8343F43F051
:104150004043C4F8343FFFF7A1FE00F0DFFCFFF757
:104160007DFE284603B030BD71C20F4170C20F41C1
:1041700000E400E0140F0020100F002010000020C9
:10418000124A12F0070F1ED0D11D21F00701C1F510
:10419000705313440A460E480260002141601344E4
:1041A000083B23F007030B48036059601960991A14
:1041B00051601360084B1960084B1960084B4FF0B1
:1041C00000421A6070474FF47053E4E7380F002044
:1041D000300F00202C0F0020240F0020280F00207B
:1041E000180F0020164B1A461B688342FBD35168F8
:1041F00002EB010C844509D0416800EB010C6345DA
:1042000009D00360904219D01060704740680144A3
:1042100051601046F0E710B40A4C2468A3420BD05A
:104220005B681944416013681B680360904200D0CA
:1042300010605DF8044B70470460F7E7704700BFFB
:10424000300F00202C0F002038B5044600F030FB62
:10425000384B1B68B3B1384B1B681C4250D1002C43
:1042600050D004F1080214F0070F02D022F0070228
:104270000832002A55D0314B1B68934253D3304942
:104280000C6804E0FFF77CFFE5E721461C46636805
:10429000934202D22368002BF7D1264B1B68A3421E
:1042A00043D00D68083523680B6063689B1A102B98
:1042B00010D9A01810F0070F08D04FF0500383F367
:1042C0001188BFF36F8FBFF34F8FFEE743606260CB
:1042D000FFF788FF626819490B689B1A0B60194940
:1042E00009688B4201D217490B60134B1B681343BB
:1042F000636000232360144A13680133136002E0F3
:10430000002500E0002500F067FB15F0070F0ED038
:104310004FF0500383F31188BFF36F8FBFF34F8FBC
:10432000FEE70025EFE70025EDE70025EBE728464F
:1043300038BD00BF2C0F0020180F0020280F0020D0
:10434000300F0020240F0020200F0020002834D040
:1043500038B50446A0F1080550F8043C174A126825
:10436000134208D14FF0500383F31188BFF36F8FCE
:10437000BFF34F8FFEE750F8081C41B14FF05003D8
:1043800083F31188BFF36F8FBFF34F8FFEE723EAEC
:10439000020340F8043C00F08BFA54F8041C084A6D
:1043A00013680B4413602846FFF71CFF054A136887
:1043B0000133136000F010FB38BD7047180F002068
:1043C000280F00201C0F0020084B1B681B6823B916
:1043D000074B4FF0FF321A607047044B1B68DB68D5
:1043E000DB685A68024B1A60704700BFA84B002078
:1043F000404B00202DE9F04707469846089DDDF820
:1044000024900A9C266B02F18042013A06EB820658
:1044100026F00706002964D008464FF0000CBCF1D6
:104420000F0F09D810F80C2004EB0C0383F834208C
:1044300012B10CF1010CF2E7002384F84330062D91
:1044400000D90625E56265644FF0000AC4F848A06B
:10445000201DFFF7C8FC04F11800FFF7C4FC24611D
:10446000C5F10705A5616462C4F890A184F894A120
:104470004FF4A072514604F1500002F0DDFB1B4BDB
:10448000636503F16802A265D033E365012200236E
:10449000C4E93A2343F20E33A4F8F0304AF6CD33A0
:1044A000A4F8F23041F23423A4F8F4304EF26D63F4
:1044B000A4F8F6304DF6EC63A4F8F8300523A4F820
:1044C000FA300B23A4F8FC30424639463046FFF759
:1044D00003FD2060B9F1000F01D0C9F80040BDE82C
:1044E000F087002384F83430A9E700BF3052002061
:1044F00038B5002407E004EB840293000E4818440A
:10450000FFF766FC0134062CF5D90C4D2846FFF761
:104510005FFC0B4C2046FFF75BFC0A48FFF758FC9A
:104520000948FFF755FC0948FFF752FC084B1D608E
:10453000084B1C6038BD00BFD44B0020C04B00208E
:10454000AC4B0020904B00207C4B0020644B0020A3
:10455000A84B0020A44B002010B50446FFF7EAFC4E
:10456000214A136801331360204B1B685BB1204B59
:104570001B686BB91D4B1B68DA6AE36A9A4207D85D
:104580001A4B1C6004E0194B1C601368012B28D0E7
:10459000184A136801331360E06A01238340164A06
:1045A00011680B43136000EB8000211D134B03EBDC
:1045B0008000FFF71BFCFFF7DFFC0D4B1B687BB196
:1045C0000A4B1B68DA6AE36A9A4209D24FF0E02389
:1045D0004FF08052C3F8042DBFF34F8FBFF36F8F9E
:1045E00010BDFFF785FFD3E7604B0020604C002033
:1045F000544B0020444B0020584B0020D44B00204B
:1046000010B50446503002F07BFB94F8953163B14D
:10461000012B11D0022B0ED04FF0500383F31188E1
:10462000BFF36F8FBFF34F8FFEE7206BFFF78EFE58
:104630002046FFF78BFE10BD2046FFF787FEFAE706
:104640000F4B1B68D3B110B5FFF774FC0D4BDB6843
:10465000DC68201DFFF7EEFB0B4A1368013B13607B
:10466000074A1368013B1360FFF786FC2046FFF7FB
:10467000C7FF034B1B68002BE6D110BD704700BF7E
:10468000784B00207C4B0020604B002008B5FFF7E2
:10469000D7FF074B1B68012BF9D94FF0E0234FF0F0
:1046A0008052C3F8042DBFF34F8FBFF36F8FEEE737
:1046B000D44B002070B504460D461D4B1E681D4BA3
:1046C00018680430FFF7B6FB48B91A4B1B68DB6A61
:1046D00001229A4018490B6823EA02030B60B4F1E7
:1046E000FF3F0DD03444134B1B685C60A64210D9C9
:1046F000124B18680F4B19680431FFF782FB70BD2D
:10470000002DEFD00B4B196804310D48FFF76EFBFD
:10471000F5E70C4B1868074B19680431FFF771FB7C
:10472000094B1B68A342EAD9074B1C60E7E700BFAF
:104730005C4B0020604C0020584B0020A44B002014
:10474000644B0020A84B0020404B002030B587B0C0
:104750000B9C8CB10C9DC5B14FF4CC750495049D98
:10476000B5F5CC7F1AD04FF0500383F31188BFF317
:104770006F8FBFF34F8FFEE74FF0500383F3118825
:10478000BFF36F8FBFF34F8FFEE74FF0500383F3FC
:104790001188BFF36F8FBFF34F8FFEE7049D0C9D11
:1047A0002C63022485F8954100240394029505ACFE
:1047B00001940A9C0094FFF71DFE0C98FFF7CCFEB5
:1047C000059807B030BD2DE9F04385B0074688460F
:1047D00014461E469000FFF737FD10B381464FF494
:1047E000CC70FFF731FD0546A8B1C0F8309000232A
:1047F00080F89531039302900D9B01930C9B0093DD
:104800003346224641463846FFF7F4FD2846FFF777
:10481000A3FE012007E04846FFF798FD4FF0FF3068
:1048200001E04FF0FF3005B0BDE8F08310B588B06F
:1048300000240594069407AA06A905A8FCF77CFCA9
:10484000059B0293069B019300942346079A104907
:104850001048FFF77BFF104B1860B8B14FF05003C2
:1048600083F31188BFF36F8FBFF34F8F0B4B1B6820
:1048700050330B4A13600B4B4FF0FF321A600A4B58
:1048800001221A60094B1C60FFF7EEFB08B010BD57
:104890000CDF00088D4600083C4B0020604C0020D7
:1048A000A4000020404B0020544B00205C4B002013
:1048B000024A136801331360704700BF384B002071
:1048C000F8B53A4B1B68002B69D1394B1D6801358F
:1048D0001D60C5B9374B1B681B6843B14FF05003CF
:1048E00083F31188BFF36F8FBFF34F8FFEE7314A19
:1048F0001168314B186810601960304A1368013331
:104900001360FFF761FD2E4B1B68AB423DD90027BA
:104910002C4B1B68DB6A03EB83039A002A4B9B58E2
:10492000012B00D90127294B1B68002B3CD0012704
:104930003AE001271F4B1B681B6843B31D4B1B68E4
:10494000DB68DC6863689D4226D3261D3046FFF78E
:1049500071FAA36A1BB104F11800FFF76BFAE36A5E
:1049600001229A401A49086802430A6003EB830354
:104970009A00314614481044FFF738FAE26A114BA6
:104980001B68DB6A9A42D4D2D4E70027D2E70C4BEB
:104990004FF0FF321A60BBE7094A1360B8E70D4ACF
:1049A00013680133136000273846F8BD384B0020E8
:1049B0005C4B0020A84B0020A44B0020484B00205B
:1049C000404B0020604C0020D44B00204C4B00207A
:1049D000584B0020504B002038B5354B1B6843B96D
:1049E0004FF0500383F31188BFF36F8FBFF34F8FE6
:1049F000FEE7FFF79FFA2E4B1A68013A1A601B6810
:104A0000002B4FD12B4B1B680BB900244BE000242B
:104A1000294B1B681BB3284BDB68DC6804F11800CA
:104A2000FFF708FA251D2846FFF704FAE06A01237C
:104A30008340224A11680B43136000EB8000294633
:104A40001F4B03EB8000FFF7D1F9E26A1D4B1B6897
:104A5000DB6A9A42DCD31C4B01221A60D8E70CB106
:104A6000FFF7B2FC194B1C6884B9174B1C68D4B112
:104A70004FF0E0234FF08052C3F8042DBFF34F8F67
:104A8000BFF36F8F01240EE0013C07D0FFF718FF42
:104A90000028F9D00C4B01221A60F5E70B4B0022DD
:104AA0001A60E2E70024FFF767FA204638BD00BF2E
:104AB000384B0020604B0020904B0020584B0020CA
:104AC000D44B0020604C00204C4B0020504B002069
:104AD00010B5A8B10446104B1B6843B14FF050030A
:104AE00083F31188BFF36F8FBFF34F8FFEE7FFF79C
:104AF000DFFE00212046FFF7DDFDFFF76DFF48B91F
:104B00004FF0E0234FF08052C3F8042DBFF34F8FD6
:104B1000BFF36F8F10BD00BF384B0020224B1B68C6
:104B20001BB1224B01221A607047204B00221A60F1
:104B30001F4B1B68B3FA83F3DBB2C3F11F0303EB14
:104B400083018A001B498A5842B94FF0500383F30E
:104B50001188BFF36F8FBFF34F8FFEE7154803EB4C
:104B600083018A00024451684968516003EB830C59
:104B70004FEA8C020832024491420DD003EB8303CA
:104B80009A000C4B13445B68DA680B4B1A601B6885
:104B900050330A4A13607047486862469100054ADC
:104BA0000A445060EAE700BF384B00204C4B00201D
:104BB000584B0020D44B0020604C0020A400002063
:104BC00000B58BB0394B984205D0394B984237D05D
:104BD0000BB05DF804FB01AB03AA0021FDF785F9DA
:104BE000039BA3F20122062AF2D8013BDBB2314A31
:104BF0001370314903EB830201EB420031F912C01B
:104C0000A0F808C09DF804E09DF805C04CEA0E2C01
:104C100021F812C09DF80620120212B29DF807C0BA
:104C200042EA0C0242809DF80820120212B29DF85E
:104C300009C042EA0C0282809DF80A208271C7E70F
:104C400001AB03AA0021FDF750F9039BA3F2012257
:104C5000062ABDD8013BDBB2184A1370184903EB92
:104C6000830201EB420031F912C0A0F808C09DF8A0
:104C700004E09DF805C04CEA0E2C21F812C09DF806
:104C80000620120212B29DF807C042EA0C024280CE
:104C90009DF80820120212B29DF809C042EA0C02E7
:104CA00082809DF80A20827192E700BFB807002039
:104CB00090070020654C0020304D0020644C0020FF
:104CC000E84C002010B582B08E469446104940F260
:104CD000FF120A6000228A60CA6008220A610D4A37
:104CE0004FEA2E24147082F801E04FEA202E82F859
:104CF00002E0D0704FEA2C20107182F805C0181223
:104D00009071D37101AB0448FDF77AF802B010BD81
:104D1000704C0020684C00209007002010B582B035
:104D20008E46944610494FF400720A6000228A6051
:104D3000CA6008220A610D4A4FEA2E24147082F8D4
:104D400001E04FEA202E82F802E0D0704FEA2C20DA
:104D5000107182F805C018129071D37101AB04482C
:104D6000FDF74EF802B010BDD04C0020C84C00201A
:104D70009007002010B582B08E4694460F494FF43C
:104D800000720A6000228A60CA6008220A610C4A26
:104D90000412147050704FEA2E20907082F803E0D5
:104DA0004FEA2C20107182F805C018129071D3714F
:104DB00001AB0448FDF724F802B010BDB04C002050
:104DC000A84C00209007002010B582B08E46944673
:104DD0000F494FF400720A6000228A60CA600822FC
:104DE0000A610C4A0412147050704FEA2E20907021
:104DF00082F803E04FEA2C20107182F805C01812E7
:104E00009071D37101AB0448FCF7FAFF02B010BDFA
:104E1000B04C0020A84C0020B807002010B582B08C
:104E20008E4694460F4940F2FF120A6000228A60C3
:104E3000CA6008220A610C4A0412147050704FEACA
:104E40002E20907082F803E04FEA2C20107182F837
:104E500005C018129071D37101AB0448FCF7D0FF64
:104E600002B010BD904C0020884C0020B8070020F4
:104E700008B50E4C4FF480612046FDF7F7FD642025
:104E8000FEF79FFF4FF480512046FDF7EFFD6420B1
:104E9000FEF797FF4FF400612046FDF7E7FD642021
:104EA000FEF78FFF0120FEF78CFFE2E7001C0240B7
:104EB00010B58AB00122089200230693079200934E
:104EC000019302930393059304930E4C6946204685
:104ED000FCF7CCFE2046FCF765FF02212046FDF7DB
:104EE000B9F80E2309930593074C69462046FCF751
:104EF000BDFE2046FCF756FF02212046FDF7AAF82A
:104F00000AB010BDB80700209007002010B4164B5F
:104F10001B685C6944F040045C61DC6844F0100488
:104F2000DC60124B1C68236823F00103236003E05C
:104F30001C6824F001041C600C4B1B681C6814F0F6
:104F4000010FF5D10A4C9C60D86019615A601A684B
:104F500042F480221A60054B1A68136843F001037B
:104F600013605DF8044B70477C0E0020740D002028
:104F700004480040F8B504460D4616461F46002377
:104F80001A461946BDF91C00FFF79CFE0023BDF927
:104F9000282019461846FFF7C1FE00231A46BDF91E
:104FA0002410BDF92000FFF7E5FE3B4632462946B6
:104FB0002046FFF709FF00231A461946BDF91800DD
:104FC000FFF72CFFF8BD000000B587B00DE0002012
:104FD000049003900290019000900346024601461F
:104FE000FFF7C8FF0120FEF7ECFE424BB3F900309B
:104FF000414AB2F90020002A18BF002B0CBF012340
:1050000000233E4AB2F900103D4AB2F900200029BF
:1050100008BF43F00103002BD9D1B2FA82F2520942
:10502000002AD4D1374BB3F90030022B0FD0032B19
:1050300019D0012B3AD000200490039002900190E7
:105040000090034602460146FFF794FFCAE700209E
:10505000049003900290019000900346024601469E
:10506000FFF788FFBEE7284BB3F900300493274BC6
:10507000B3F900300393264BB3F900300293254B6C
:10508000B3F900300193244BB3F900300093234B64
:10509000B3F90030224AB2F900202249B1F90010D8
:1050A0002148B0F90000FFF765FF9BE7164BB3F905
:1050B00000300493154BB3F900300393144BB3F94C
:1050C00000300293134BB3F900300193124BB3F944
:1050D00000300093114BB3F90030114AB2F90020AF
:1050E0001049B1F900101048B0F90000FFF742FF75
:1050F00078E700BF2C0C0020240C00201A0C0020A4
:10510000180C0020580C0020AC0B0020B40B002021
:10511000B80B0020BC0B0020C40B0020DE0B0020CD
:10512000E40B0020EA0B0020F00B002008B53E4BFA
:10513000B3F90000012814BF002301233B4AB2F950
:105140000010012914BF00220122134223D0384B42
:1051500000221A60374BB3F90000012814BF002366
:105160000123354AB2F90010012914BF002201229F
:10517000134230D0314B00221A60FCF7CBFC304B8D
:105180001B68C01AB0F5967F04D92E4BB3F90030D6
:10519000012B40D008BD002914BF002303F00103F8
:1051A0001BB1234B284A1A60D4E7002814BF002201
:1051B00002F001021AB11E4B244A1A60CAE7244BBE
:1051C000B3F900305B0007EE903AF8EEE77A184B3F
:1051D000C3ED007ABEE7002914BF002303F00103EA
:1051E0001BB1164B194A1A60C7E7002814BF0022EA
:1051F00002F001021AB1114B134A1A60BDE7154BB8
:10520000B3F900305B0007EE903AF8EEE77A0B4B0B
:10521000C3ED007AB1E7FCF77DFC094B18600E4A3C
:10522000138801331380B5E7540C0020520C002082
:10523000100C0020500C00204E0C0020140C0020FC
:10524000F80B0020480C002000007A4400007AC4CB
:10525000600C0020620C0020F40B00200B4B1B8D17
:10526000A3F59453183B07EE903AF8EEE77ADFED9A
:10527000086A87EEA67A074B83ED007ADFED067A9F
:1052800027EE277A054B83ED007A7047304D0020DA
:10529000610BB641000C002035FA8E3CFC0B00205F
:1052A00008B52DED068B1C4B1868FBF7EDF841ECAB
:1052B000190BB0EE490AF0EE690A07F081FB51ECD8
:1052C000100BFBF739F908EE900A144B93ED008AA6
:1052D00028EE88AAB0EE490AF0EE690A07F0B4FB9E
:1052E00051EC100BFBF728F907EE900A0C4B93EDED
:1052F000007A67EE876A3AEE66AA0A4B83ED00AA47
:1053000028EE278A68EE878A38EE288A064B83EDD6
:10531000008ABDEC068B08BDFC0B0020140C00209D
:10532000100C00200C0C0020080C002010B46B4B5B
:10533000D3ED005A6A4BD3ED007A35EEE77ABDEE35
:10534000C77A17EE103A1AB2664B1A8035EEA76A82
:10535000BDEEC66A16EE103A18B2634B188077EEAF
:10536000E56AFDEEE66A16EE903A19B25F4B1980D7
:10537000F1EE677A77EEE57AFDEEE77A17EE903A8E
:105380001BB25B4C238007EE902AB8EEE77AF0EE72
:10539000C75A07EE900AB8EEE76AF0EEC67A75EEE5
:1053A000A75A07EE901AF8EEE76AF0EEE67A75EE85
:1053B000A75A07EE903AF8EEE77AB0EEE75A75EEA4
:1053C000855A4C4BC3ED005A4B4B93ED005A75EE8A
:1053D000C55A4A4BC3ED005AF5EEC05AF1EE10FA29
:1053E00050D4474B00221A60464B01221A80444B8E
:1053F000D3ED005A37EE257ABDEEC77A17EE103A94
:105400001AB2414B1A8036EE256ABDEEC66A16EE18
:10541000103A18B23D4B188076EEA56AFDEEE66AAA
:1054200016EE903A19B23A4B198077EEA57AFDEE56
:10543000E77A17EE903A1BB2364C238007EE902A9B
:10544000F8EEE77AF0EEE77A07EE100AB8EEC76AF0
:10545000B0EEC66A77EE867A07EE101AF8EEC76AE3
:10546000F0EEE66A37EEA67A07EE903AF8EEE77AC3
:10547000F0EEE77A77EE277A274BC3ED007A5DF8F6
:10548000044B70471F4B00221A80244BB3F90030A5
:10549000012B12D0032BAAD1214BB3F90030002BE2
:1054A00003F00103B8BF5B42012B0ED0144B1D4A21
:1054B00012681A6000221A6099E7B5EE005A65EE8C
:1054C000855A0F4BC3ED005A91E7B5EE005A65EED1
:1054D000855A0B4BC3ED005A89E700BF0C0C002026
:1054E000080C0020EE0B0020E80B0020E20B00204F
:1054F000DC0B0020D80B0020A40B0020D00B0020D8
:10550000040C0020CC0B0020F20B0020EC0B002040
:10551000E60B0020E00B0020A00B0020580C002020
:10552000F40B0020D40B002008B5DFED050A9FED39
:10553000050A054A0021054800F074FD08BD00BFBA
:1055400000007A440000804644000020984E00206D
:1055500010B500EE900A0A4BB3F9023000EE103A93
:10556000084CF8EEE00AB8EEC00A204600F074FDE0
:10557000D4ED087AFDEEE77A17EE903A18B210BD36
:10558000304D0020984E002008B5DFED050A9FED54
:10559000050A054A0021054800F044FD08BD00BF8A
:1055A00000007A440000804638000020504E002061
:1055B00010B500EE900A0A4BB3F90C3000EE103A29
:1055C000084CF8EEE00AB8EEC00A204600F044FDB0
:1055D000D4ED087AFDEEE77A17EE903A18B210BDD6
:1055E000304D0020504E002008B5DFED050A9FED3C
:1055F000050A054A0021054800F014FD08BD00BF5A
:1056000000007A44000080462C000020084E002054
:1056100010B500EE900A0A4BB3F9163000EE103ABE
:10562000084CF8EEE00AB8EEC00A204600F014FD7F
:10563000D4ED087AFDEEE77A17EE903A18B210BD75
:10564000304D0020084E002008B5DFED050A9FED23
:10565000050A054A0021054800F0E4FC08BD00BF2A
:1056600000007A440000804620000020C04D002049
:1056700010B500EE900A0A4BB3F9203000EE103A54
:10568000084CF8EEE00AB8EEC00A204600F0E4FC50
:10569000D4ED087AFDEEE77A17EE903A18B210BD15
:1056A000304D0020C04D002008B50E4BB3F900006E
:1056B000FFF74EFF0C4B18800C4BB3F90000FFF7BF
:1056C00077FF0B4B18800B4BB3F90000FFF7A0FFDF
:1056D000094B1880094BB3F90000FFF7C9FF084BCD
:1056E000188008BDF20B0020F00B0020EC0B00200E
:1056F000EA0B0020E60B0020E40B0020E00B00206A
:10570000DE0B002008B5FFF711FDFFF7A7FDFFF73F
:10571000C7FDFFF70BFEFFF7C7FF0020FEF751FBA9
:10572000F1E7000008B5DFED050A9FED050A054A1F
:105730000021054800F076FC08BD00BF0000000015
:1057400000803B4514000020784D002008B5FCF790
:10575000E1F9074B1B68C01AB0F5967F03D9054BDA
:1057600000221A8008BD034B01221A80FAE700BF0D
:10577000280C00202C0C002008B5FCF7CBF9064BB8
:105780001B68C01A642803D9044B00221A8008BD84
:10579000024B01221A80FAE7200C0020240C002082
:1057A000064B93F82E303B2B03D8054B01221A8071
:1057B0007047034B00221A80704700BF304D002015
:1057C0001A0C0020064B93F838303B2B03D8054BBE
:1057D00001221A807047034B00221A80704700BFD5
:1057E000E84C0020180C002008B5FFF7AFFFFFF7CA
:1057F000C3FFFFF7D5FFFFF7E5FF0120FEF7E1FA52
:10580000F3E7000008B544E06C490020088072E02E
:105810006B490020088074E06A490020088076E027
:1058200069490020088078E06849002008807AE013
:105830006749002008807CE06649002008807FE0FE
:1058400065490020088082E064490020088085E0E6
:1058500063490020088088E06249002008808BE0CE
:105860006149002008808EE060490020088091E0B6
:105870005F490020088094E05E4B0121198012F4FA
:10588000004F40F096805C4B00221A800120FEF70A
:1058900098FA5A4B1B68B3F90010594A1180B3F9B2
:1058A0000210584A1180B3F90410574A1180B3F915
:1058B0000610564A1180B3F90810554A1180997A9A
:1058C000544A1180D97A544A1180B3F90C10534AC2
:1058D0001180B3F90E10524A1180997C514A1180FF
:1058E000D97C514A11809A8A93B212F0010F8BD061
:1058F00032490120088013F0020F89D0304901207D
:10590000088013F0040F87D02E490120088013F07F
:10591000080F85D02C490120088013F0100F83D088
:105920002A490120088013F0200F81D02849012046
:10593000088013F0400F3FF47FAF26490120088014
:1059400013F0800F3FF47CAF23490120088013F44B
:10595000807F3FF479AF21490120088013F4007F54
:105960003FF476AF1E490120088013F4806F3FF4A6
:1059700073AF1C490120088013F4006F3FF470AF2F
:1059800019490120088013F4805F3FF46DAF174977
:105990000120088013F4005F3FF46AAF144901202E
:1059A000088013F4804F7FF467AF124B00211980F9
:1059B00065E7114B01221A8068E700BF540C0020F4
:1059C000520C0020500C00204E0C00204C0C0020EB
:1059D0004A0C0020480C0020460C0020440C0020FB
:1059E000420C0020400C00203E0C00203C0C00200B
:1059F0003A0C0020380C0020360C0020640C0020EB
:105A0000620C0020600C00205E0C00205C0C00206A
:105A10005A0C0020580C0020560C0020340C00209A
:105A2000320C0020300C00202E0C00200000000062
:105A300010B5494BB3F90030484AB2F9004053EA77
:105A4000040243D1464BB3F9003033B3454BB3F9AD
:105A5000003007EE903AF8EEE77A9FED437A67EE72
:105A6000877A17EE900AFAF70FFD37A3D3E90023E0
:105A7000FAF7AAFBFAF760FD3C4B18603C4BB3F910
:105A8000003007EE103AB8EEC77AF6EE007A67EE0D
:105A9000C77A384BC3ED007A10BD324BB3F90030F2
:105AA00007EE903AF8EEE77A9FED2F7A67EE877A65
:105AB00017EE900AFAF7E8FC25A3D3E90023FAF7DA
:105AC00083FBFAF739FD294B1860D7E7244AB2F96E
:105AD000002002B35B4207EE903AF8EEE77A9FEDC2
:105AE000267A67EE877A17EE900AFAF7CDFC16A3AE
:105AF000D3E90023FAF768FBFAF71EFD1B4B186089
:105B0000644207EE904AF8EEE77A77EEA77A194BEF
